{
	"contract.sol": {
		"SharedWallet": {
			"abi": [
				{
					"anonymous": false,
					"inputs": [
						{
							"indexed": true,
							"internalType": "address",
							"name": "_forWho",
							"type": "address"
						},
						{
							"indexed": true,
							"internalType": "address",
							"name": "_fromWhom",
							"type": "address"
						},
						{
							"indexed": false,
							"internalType": "uint256",
							"name": "_oldAmount",
							"type": "uint256"
						},
						{
							"indexed": false,
							"internalType": "uint256",
							"name": "_newAmount",
							"type": "uint256"
						}
					],
					"name": "AllowanceChanged",
					"type": "event"
				},
				{
					"anonymous": false,
					"inputs": [
						{
							"indexed": true,
							"internalType": "address",
							"name": "_from",
							"type": "address"
						},
						{
							"indexed": false,
							"internalType": "uint256",
							"name": "_amount",
							"type": "uint256"
						}
					],
					"name": "MoneyRecieved",
					"type": "event"
				},
				{
					"anonymous": false,
					"inputs": [
						{
							"indexed": true,
							"internalType": "address",
							"name": "_beneficiary",
							"type": "address"
						},
						{
							"indexed": false,
							"internalType": "uint256",
							"name": "_amount",
							"type": "uint256"
						}
					],
					"name": "MoneySent",
					"type": "event"
				},
				{
					"anonymous": false,
					"inputs": [
						{
							"indexed": true,
							"internalType": "address",
							"name": "previousOwner",
							"type": "address"
						},
						{
							"indexed": true,
							"internalType": "address",
							"name": "newOwner",
							"type": "address"
						}
					],
					"name": "OwnershipTransferred",
					"type": "event"
				},
				{
					"inputs": [
						{
							"internalType": "address",
							"name": "_who",
							"type": "address"
						},
						{
							"internalType": "uint256",
							"name": "_amount",
							"type": "uint256"
						}
					],
					"name": "addAllowance",
					"outputs": [],
					"stateMutability": "nonpayable",
					"type": "function"
				},
				{
					"inputs": [
						{
							"internalType": "address",
							"name": "",
							"type": "address"
						}
					],
					"name": "allowance",
					"outputs": [
						{
							"internalType": "uint256",
							"name": "",
							"type": "uint256"
						}
					],
					"stateMutability": "view",
					"type": "function"
				},
				{
					"inputs": [],
					"name": "isOwner",
					"outputs": [
						{
							"internalType": "bool",
							"name": "",
							"type": "bool"
						}
					],
					"stateMutability": "view",
					"type": "function"
				},
				{
					"inputs": [],
					"name": "owner",
					"outputs": [
						{
							"internalType": "address",
							"name": "",
							"type": "address"
						}
					],
					"stateMutability": "view",
					"type": "function"
				},
				{
					"inputs": [],
					"name": "renounceOwnership",
					"outputs": [],
					"stateMutability": "nonpayable",
					"type": "function"
				},
				{
					"inputs": [
						{
							"internalType": "address",
							"name": "newOwner",
							"type": "address"
						}
					],
					"name": "transferOwnership",
					"outputs": [],
					"stateMutability": "nonpayable",
					"type": "function"
				},
				{
					"inputs": [
						{
							"internalType": "address payable",
							"name": "_to",
							"type": "address"
						},
						{
							"internalType": "uint256",
							"name": "_amount",
							"type": "uint256"
						}
					],
					"name": "withdrawMoney",
					"outputs": [],
					"stateMutability": "nonpayable",
					"type": "function"
				},
				{
					"stateMutability": "payable",
					"type": "receive"
				}
			],
			"devdoc": {
				"kind": "dev",
				"methods": {
					"owner()": {
						"details": "Returns the address of the current owner."
					},
					"renounceOwnership()": {
						"details": "Leaves the contract without owner. It will not be possible to call `onlyOwner` functions anymore. Can only be called by the current owner. NOTE: Renouncing ownership will leave the contract without an owner, thereby removing any functionality that is only available to the owner."
					},
					"transferOwnership(address)": {
						"details": "Transfers ownership of the contract to a new account (`newOwner`). Can only be called by the current owner."
					}
				},
				"version": 1
			},
			"evm": {
				"assembly": "    /* \"contract.sol\":1361:1980  contract SharedWallet is Allowance{\r... */\n  mstore(0x40, 0x80)\n  callvalue\n  dup1\n  iszero\n  tag_1\n  jumpi\n  0x00\n  dup1\n  revert\ntag_1:\n  pop\n    /* \"https://github.com/OpenZeppelin/openzeppelin-contracts/blob/master/contracts/access/Ownable.sol\":921:953  _transferOwnership(_msgSender()) */\n  tag_4\n    /* \"https://github.com/OpenZeppelin/openzeppelin-contracts/blob/master/contracts/access/Ownable.sol\":940:952  _msgSender() */\n  tag_5\n    /* \"https://github.com/OpenZeppelin/openzeppelin-contracts/blob/master/contracts/access/Ownable.sol\":940:950  _msgSender */\n  shl(0x20, tag_6)\n    /* \"https://github.com/OpenZeppelin/openzeppelin-contracts/blob/master/contracts/access/Ownable.sol\":940:952  _msgSender() */\n  0x20\n  shr\n  jump\t// in\ntag_5:\n    /* \"https://github.com/OpenZeppelin/openzeppelin-contracts/blob/master/contracts/access/Ownable.sol\":921:939  _transferOwnership */\n  shl(0x20, tag_7)\n    /* \"https://github.com/OpenZeppelin/openzeppelin-contracts/blob/master/contracts/access/Ownable.sol\":921:953  _transferOwnership(_msgSender()) */\n  0x20\n  shr\n  jump\t// in\ntag_4:\n    /* \"contract.sol\":1361:1980  contract SharedWallet is Allowance{\r... */\n  jump(tag_8)\n    /* \"https://github.com/OpenZeppelin/openzeppelin-contracts/blob/master/contracts/utils/Context.sol\":640:736  function _msgSender() internal view virtual returns (address) {... */\ntag_6:\n    /* \"https://github.com/OpenZeppelin/openzeppelin-contracts/blob/master/contracts/utils/Context.sol\":693:700  address */\n  0x00\n    /* \"https://github.com/OpenZeppelin/openzeppelin-contracts/blob/master/contracts/utils/Context.sol\":719:729  msg.sender */\n  caller\n    /* \"https://github.com/OpenZeppelin/openzeppelin-contracts/blob/master/contracts/utils/Context.sol\":712:729  return msg.sender */\n  swap1\n  pop\n    /* \"https://github.com/OpenZeppelin/openzeppelin-contracts/blob/master/contracts/utils/Context.sol\":640:736  function _msgSender() internal view virtual returns (address) {... */\n  swap1\n  jump\t// out\n    /* \"https://github.com/OpenZeppelin/openzeppelin-contracts/blob/master/contracts/access/Ownable.sol\":2270:2457  function _transferOwnership(address newOwner) internal virtual {... */\ntag_7:\n    /* \"https://github.com/OpenZeppelin/openzeppelin-contracts/blob/master/contracts/access/Ownable.sol\":2343:2359  address oldOwner */\n  0x00\n    /* \"https://github.com/OpenZeppelin/openzeppelin-contracts/blob/master/contracts/access/Ownable.sol\":2362:2368  _owner */\n  dup1\n  0x00\n  swap1\n  sload\n  swap1\n  0x0100\n  exp\n  swap1\n  div\n  0xffffffffffffffffffffffffffffffffffffffff\n  and\n    /* \"https://github.com/OpenZeppelin/openzeppelin-contracts/blob/master/contracts/access/Ownable.sol\":2343:2368  address oldOwner = _owner */\n  swap1\n  pop\n    /* \"https://github.com/OpenZeppelin/openzeppelin-contracts/blob/master/contracts/access/Ownable.sol\":2387:2395  newOwner */\n  dup2\n    /* \"https://github.com/OpenZeppelin/openzeppelin-contracts/blob/master/contracts/access/Ownable.sol\":2378:2384  _owner */\n  0x00\n  dup1\n    /* \"https://github.com/OpenZeppelin/openzeppelin-contracts/blob/master/contracts/access/Ownable.sol\":2378:2395  _owner = newOwner */\n  0x0100\n  exp\n  dup2\n  sload\n  dup2\n  0xffffffffffffffffffffffffffffffffffffffff\n  mul\n  not\n  and\n  swap1\n  dup4\n  0xffffffffffffffffffffffffffffffffffffffff\n  and\n  mul\n  or\n  swap1\n  sstore\n  pop\n    /* \"https://github.com/OpenZeppelin/openzeppelin-contracts/blob/master/contracts/access/Ownable.sol\":2441:2449  newOwner */\n  dup2\n    /* \"https://github.com/OpenZeppelin/openzeppelin-contracts/blob/master/contracts/access/Ownable.sol\":2410:2450  OwnershipTransferred(oldOwner, newOwner) */\n  0xffffffffffffffffffffffffffffffffffffffff\n  and\n    /* \"https://github.com/OpenZeppelin/openzeppelin-contracts/blob/master/contracts/access/Ownable.sol\":2431:2439  oldOwner */\n  dup2\n    /* \"https://github.com/OpenZeppelin/openzeppelin-contracts/blob/master/contracts/access/Ownable.sol\":2410:2450  OwnershipTransferred(oldOwner, newOwner) */\n  0xffffffffffffffffffffffffffffffffffffffff\n  and\n  0x8be0079c531659141344cd1fd0a4f28419497f9722a3daafe3b4186f6b6457e0\n  mload(0x40)\n  mload(0x40)\n  dup1\n  swap2\n  sub\n  swap1\n  log3\n    /* \"https://github.com/OpenZeppelin/openzeppelin-contracts/blob/master/contracts/access/Ownable.sol\":2333:2457  {... */\n  pop\n    /* \"https://github.com/OpenZeppelin/openzeppelin-contracts/blob/master/contracts/access/Ownable.sol\":2270:2457  function _transferOwnership(address newOwner) internal virtual {... */\n  pop\n  jump\t// out\n    /* \"contract.sol\":1361:1980  contract SharedWallet is Allowance{\r... */\ntag_8:\n  dataSize(sub_0)\n  dup1\n  dataOffset(sub_0)\n  0x00\n  codecopy\n  0x00\n  return\nstop\n\nsub_0: assembly {\n        /* \"contract.sol\":1361:1980  contract SharedWallet is Allowance{\r... */\n      mstore(0x40, 0x80)\n      jumpi(tag_1, lt(calldatasize, 0x04))\n      shr(0xe0, calldataload(0x00))\n      dup1\n      0x8f32d59b\n      gt\n      tag_10\n      jumpi\n      dup1\n      0x8f32d59b\n      eq\n      tag_6\n      jumpi\n      dup1\n      0xf274c897\n      eq\n      tag_7\n      jumpi\n      dup1\n      0xf2fde38b\n      eq\n      tag_8\n      jumpi\n      dup1\n      0xf3c40c4b\n      eq\n      tag_9\n      jumpi\n      jump(tag_2)\n    tag_10:\n      dup1\n      0x3e5beab9\n      eq\n      tag_3\n      jumpi\n      dup1\n      0x715018a6\n      eq\n      tag_4\n      jumpi\n      dup1\n      0x8da5cb5b\n      eq\n      tag_5\n      jumpi\n      jump(tag_2)\n    tag_1:\n      jumpi(tag_2, calldatasize)\n        /* \"contract.sol\":1948:1958  msg.sender */\n      caller\n        /* \"contract.sol\":1934:1969  MoneyRecieved(msg.sender,msg.value) */\n      0xffffffffffffffffffffffffffffffffffffffff\n      and\n      0x47f2f057e07ab96af9d94d9dbc644caf683a7e62af7e24e0a6e46b4667eb5832\n        /* \"contract.sol\":1959:1968  msg.value */\n      callvalue\n        /* \"contract.sol\":1934:1969  MoneyRecieved(msg.sender,msg.value) */\n      mload(0x40)\n      tag_13\n      swap2\n      swap1\n      tag_14\n      jump\t// in\n    tag_13:\n      mload(0x40)\n      dup1\n      swap2\n      sub\n      swap1\n      log2\n        /* \"contract.sol\":1361:1980  contract SharedWallet is Allowance{\r... */\n      stop\n    tag_2:\n      0x00\n      dup1\n      revert\n        /* \"contract.sol\":467:509  mapping (address => uint) public allowance */\n    tag_3:\n      callvalue\n      dup1\n      iszero\n      tag_15\n      jumpi\n      0x00\n      dup1\n      revert\n    tag_15:\n      pop\n      tag_16\n      0x04\n      dup1\n      calldatasize\n      sub\n      dup2\n      add\n      swap1\n      tag_17\n      swap2\n      swap1\n      tag_18\n      jump\t// in\n    tag_17:\n      tag_19\n      jump\t// in\n    tag_16:\n      mload(0x40)\n      tag_20\n      swap2\n      swap1\n      tag_14\n      jump\t// in\n    tag_20:\n      mload(0x40)\n      dup1\n      swap2\n      sub\n      swap1\n      return\n        /* \"https://github.com/OpenZeppelin/openzeppelin-contracts/blob/master/contracts/access/Ownable.sol\":1668:1769  function renounceOwnership() public virtual onlyOwner {... */\n    tag_4:\n      callvalue\n      dup1\n      iszero\n      tag_21\n      jumpi\n      0x00\n      dup1\n      revert\n    tag_21:\n      pop\n      tag_22\n      tag_23\n      jump\t// in\n    tag_22:\n      stop\n        /* \"https://github.com/OpenZeppelin/openzeppelin-contracts/blob/master/contracts/access/Ownable.sol\":1036:1121  function owner() public view virtual returns (address) {... */\n    tag_5:\n      callvalue\n      dup1\n      iszero\n      tag_24\n      jumpi\n      0x00\n      dup1\n      revert\n    tag_24:\n      pop\n      tag_25\n      tag_26\n      jump\t// in\n    tag_25:\n      mload(0x40)\n      tag_27\n      swap2\n      swap1\n      tag_28\n      jump\t// in\n    tag_27:\n      mload(0x40)\n      dup1\n      swap2\n      sub\n      swap1\n      return\n        /* \"contract.sol\":518:652  function isOwner() public view returns (bool){ //CHECKS IF CURRENT USER IS OWNER OR NOT\r... */\n    tag_6:\n      callvalue\n      dup1\n      iszero\n      tag_29\n      jumpi\n      0x00\n      dup1\n      revert\n    tag_29:\n      pop\n      tag_30\n      tag_31\n      jump\t// in\n    tag_30:\n      mload(0x40)\n      tag_32\n      swap2\n      swap1\n      tag_33\n      jump\t// in\n    tag_32:\n      mload(0x40)\n      dup1\n      swap2\n      sub\n      swap1\n      return\n        /* \"contract.sol\":1535:1885  function withdrawMoney(address payable _to, uint _amount) public ownerOrAllowed(_amount) {\r... */\n    tag_7:\n      callvalue\n      dup1\n      iszero\n      tag_34\n      jumpi\n      0x00\n      dup1\n      revert\n    tag_34:\n      pop\n      tag_35\n      0x04\n      dup1\n      calldatasize\n      sub\n      dup2\n      add\n      swap1\n      tag_36\n      swap2\n      swap1\n      tag_37\n      jump\t// in\n    tag_36:\n      tag_38\n      jump\t// in\n    tag_35:\n      stop\n        /* \"https://github.com/OpenZeppelin/openzeppelin-contracts/blob/master/contracts/access/Ownable.sol\":1918:2116  function transferOwnership(address newOwner) public virtual onlyOwner {... */\n    tag_8:\n      callvalue\n      dup1\n      iszero\n      tag_39\n      jumpi\n      0x00\n      dup1\n      revert\n    tag_39:\n      pop\n      tag_40\n      0x04\n      dup1\n      calldatasize\n      sub\n      dup2\n      add\n      swap1\n      tag_41\n      swap2\n      swap1\n      tag_18\n      jump\t// in\n    tag_41:\n      tag_42\n      jump\t// in\n    tag_40:\n      stop\n        /* \"contract.sol\":658:847  function addAllowance(address _who, uint _amount) public onlyOwner{\r... */\n    tag_9:\n      callvalue\n      dup1\n      iszero\n      tag_43\n      jumpi\n      0x00\n      dup1\n      revert\n    tag_43:\n      pop\n      tag_44\n      0x04\n      dup1\n      calldatasize\n      sub\n      dup2\n      add\n      swap1\n      tag_45\n      swap2\n      swap1\n      tag_46\n      jump\t// in\n    tag_45:\n      tag_47\n      jump\t// in\n    tag_44:\n      stop\n        /* \"contract.sol\":467:509  mapping (address => uint) public allowance */\n    tag_19:\n      mstore(0x20, 0x01)\n      dup1\n      0x00\n      mstore\n      keccak256(0x00, 0x40)\n      0x00\n      swap2\n      pop\n      swap1\n      pop\n      sload\n      dup2\n      jump\t// out\n        /* \"https://github.com/OpenZeppelin/openzeppelin-contracts/blob/master/contracts/access/Ownable.sol\":1668:1769  function renounceOwnership() public virtual onlyOwner {... */\n    tag_23:\n        /* \"https://github.com/OpenZeppelin/openzeppelin-contracts/blob/master/contracts/access/Ownable.sol\":1259:1271  _msgSender() */\n      tag_49\n        /* \"https://github.com/OpenZeppelin/openzeppelin-contracts/blob/master/contracts/access/Ownable.sol\":1259:1269  _msgSender */\n      tag_50\n        /* \"https://github.com/OpenZeppelin/openzeppelin-contracts/blob/master/contracts/access/Ownable.sol\":1259:1271  _msgSender() */\n      jump\t// in\n    tag_49:\n        /* \"https://github.com/OpenZeppelin/openzeppelin-contracts/blob/master/contracts/access/Ownable.sol\":1248:1271  owner() == _msgSender() */\n      0xffffffffffffffffffffffffffffffffffffffff\n      and\n        /* \"https://github.com/OpenZeppelin/openzeppelin-contracts/blob/master/contracts/access/Ownable.sol\":1248:1255  owner() */\n      tag_51\n        /* \"https://github.com/OpenZeppelin/openzeppelin-contracts/blob/master/contracts/access/Ownable.sol\":1248:1253  owner */\n      tag_26\n        /* \"https://github.com/OpenZeppelin/openzeppelin-contracts/blob/master/contracts/access/Ownable.sol\":1248:1255  owner() */\n      jump\t// in\n    tag_51:\n        /* \"https://github.com/OpenZeppelin/openzeppelin-contracts/blob/master/contracts/access/Ownable.sol\":1248:1271  owner() == _msgSender() */\n      0xffffffffffffffffffffffffffffffffffffffff\n      and\n      eq\n        /* \"https://github.com/OpenZeppelin/openzeppelin-contracts/blob/master/contracts/access/Ownable.sol\":1240:1308  require(owner() == _msgSender(), \"Ownable: caller is not the owner\") */\n      tag_52\n      jumpi\n      mload(0x40)\n      0x08c379a000000000000000000000000000000000000000000000000000000000\n      dup2\n      mstore\n      0x04\n      add\n      tag_53\n      swap1\n      tag_54\n      jump\t// in\n    tag_53:\n      mload(0x40)\n      dup1\n      swap2\n      sub\n      swap1\n      revert\n    tag_52:\n        /* \"https://github.com/OpenZeppelin/openzeppelin-contracts/blob/master/contracts/access/Ownable.sol\":1732:1762  _transferOwnership(address(0)) */\n      tag_56\n        /* \"https://github.com/OpenZeppelin/openzeppelin-contracts/blob/master/contracts/access/Ownable.sol\":1759:1760  0 */\n      0x00\n        /* \"https://github.com/OpenZeppelin/openzeppelin-contracts/blob/master/contracts/access/Ownable.sol\":1732:1750  _transferOwnership */\n      tag_57\n        /* \"https://github.com/OpenZeppelin/openzeppelin-contracts/blob/master/contracts/access/Ownable.sol\":1732:1762  _transferOwnership(address(0)) */\n      jump\t// in\n    tag_56:\n        /* \"https://github.com/OpenZeppelin/openzeppelin-contracts/blob/master/contracts/access/Ownable.sol\":1668:1769  function renounceOwnership() public virtual onlyOwner {... */\n      jump\t// out\n        /* \"https://github.com/OpenZeppelin/openzeppelin-contracts/blob/master/contracts/access/Ownable.sol\":1036:1121  function owner() public view virtual returns (address) {... */\n    tag_26:\n        /* \"https://github.com/OpenZeppelin/openzeppelin-contracts/blob/master/contracts/access/Ownable.sol\":1082:1089  address */\n      0x00\n        /* \"https://github.com/OpenZeppelin/openzeppelin-contracts/blob/master/contracts/access/Ownable.sol\":1108:1114  _owner */\n      dup1\n      0x00\n      swap1\n      sload\n      swap1\n      0x0100\n      exp\n      swap1\n      div\n      0xffffffffffffffffffffffffffffffffffffffff\n      and\n        /* \"https://github.com/OpenZeppelin/openzeppelin-contracts/blob/master/contracts/access/Ownable.sol\":1101:1114  return _owner */\n      swap1\n      pop\n        /* \"https://github.com/OpenZeppelin/openzeppelin-contracts/blob/master/contracts/access/Ownable.sol\":1036:1121  function owner() public view virtual returns (address) {... */\n      swap1\n      jump\t// out\n        /* \"contract.sol\":518:652  function isOwner() public view returns (bool){ //CHECKS IF CURRENT USER IS OWNER OR NOT\r... */\n    tag_31:\n        /* \"contract.sol\":558:562  bool */\n      0x00\n        /* \"contract.sol\":637:644  owner() */\n      tag_60\n        /* \"contract.sol\":637:642  owner */\n      tag_26\n        /* \"contract.sol\":637:644  owner() */\n      jump\t// in\n    tag_60:\n        /* \"contract.sol\":622:644  _msgSender()== owner() */\n      0xffffffffffffffffffffffffffffffffffffffff\n      and\n        /* \"contract.sol\":622:634  _msgSender() */\n      tag_61\n        /* \"contract.sol\":622:632  _msgSender */\n      tag_50\n        /* \"contract.sol\":622:634  _msgSender() */\n      jump\t// in\n    tag_61:\n        /* \"contract.sol\":622:644  _msgSender()== owner() */\n      0xffffffffffffffffffffffffffffffffffffffff\n      and\n      eq\n        /* \"contract.sol\":615:644  return _msgSender()== owner() */\n      swap1\n      pop\n        /* \"contract.sol\":518:652  function isOwner() public view returns (bool){ //CHECKS IF CURRENT USER IS OWNER OR NOT\r... */\n      swap1\n      jump\t// out\n        /* \"contract.sol\":1535:1885  function withdrawMoney(address payable _to, uint _amount) public ownerOrAllowed(_amount) {\r... */\n    tag_38:\n        /* \"contract.sol\":1615:1622  _amount */\n      dup1\n        /* \"contract.sol\":1040:1049  isOwner() */\n      tag_63\n        /* \"contract.sol\":1040:1047  isOwner */\n      tag_31\n        /* \"contract.sol\":1040:1049  isOwner() */\n      jump\t// in\n    tag_63:\n        /* \"contract.sol\":1040:1084  isOwner() || allowance[msg.sender]>= _amount */\n      dup1\n      tag_64\n      jumpi\n      pop\n        /* \"contract.sol\":1077:1084  _amount */\n      dup1\n        /* \"contract.sol\":1053:1062  allowance */\n      0x01\n        /* \"contract.sol\":1053:1074  allowance[msg.sender] */\n      0x00\n        /* \"contract.sol\":1063:1073  msg.sender */\n      caller\n        /* \"contract.sol\":1053:1074  allowance[msg.sender] */\n      0xffffffffffffffffffffffffffffffffffffffff\n      and\n      0xffffffffffffffffffffffffffffffffffffffff\n      and\n      dup2\n      mstore\n      0x20\n      add\n      swap1\n      dup2\n      mstore\n      0x20\n      add\n      0x00\n      keccak256\n      sload\n        /* \"contract.sol\":1053:1084  allowance[msg.sender]>= _amount */\n      lt\n      iszero\n        /* \"contract.sol\":1040:1084  isOwner() || allowance[msg.sender]>= _amount */\n    tag_64:\n        /* \"contract.sol\":1032:1107  require(isOwner() || allowance[msg.sender]>= _amount, \"You're not allowed\") */\n      tag_65\n      jumpi\n      mload(0x40)\n      0x08c379a000000000000000000000000000000000000000000000000000000000\n      dup2\n      mstore\n      0x04\n      add\n      tag_66\n      swap1\n      tag_67\n      jump\t// in\n    tag_66:\n      mload(0x40)\n      dup1\n      swap2\n      sub\n      swap1\n      revert\n    tag_65:\n        /* \"contract.sol\":1654:1675  address(this).balance */\n      selfbalance\n        /* \"contract.sol\":1643:1650  _amount */\n      dup3\n        /* \"contract.sol\":1643:1675  _amount <= address(this).balance */\n      gt\n      iszero\n        /* \"contract.sol\":1635:1709  require(_amount <= address(this).balance,\"Insufficient funds in contract\") */\n      tag_69\n      jumpi\n      mload(0x40)\n      0x08c379a000000000000000000000000000000000000000000000000000000000\n      dup2\n      mstore\n      0x04\n      add\n      tag_70\n      swap1\n      tag_71\n      jump\t// in\n    tag_70:\n      mload(0x40)\n      dup1\n      swap2\n      sub\n      swap1\n      revert\n    tag_69:\n        /* \"contract.sol\":1724:1733  isOwner() */\n      tag_72\n        /* \"contract.sol\":1724:1731  isOwner */\n      tag_31\n        /* \"contract.sol\":1724:1733  isOwner() */\n      jump\t// in\n    tag_72:\n        /* \"contract.sol\":1720:1808  if(!isOwner())\r... */\n      tag_73\n      jumpi\n        /* \"contract.sol\":1759:1796  reducedAllowance(msg.sender, _amount) */\n      tag_74\n        /* \"contract.sol\":1776:1786  msg.sender */\n      caller\n        /* \"contract.sol\":1788:1795  _amount */\n      dup4\n        /* \"contract.sol\":1759:1775  reducedAllowance */\n      tag_75\n        /* \"contract.sol\":1759:1796  reducedAllowance(msg.sender, _amount) */\n      jump\t// in\n    tag_74:\n        /* \"contract.sol\":1720:1808  if(!isOwner())\r... */\n    tag_73:\n        /* \"contract.sol\":1833:1836  _to */\n      dup3\n        /* \"contract.sol\":1823:1845  MoneySent(_to,_amount) */\n      0xffffffffffffffffffffffffffffffffffffffff\n      and\n      0x7f51d406915971d4ac1c91af96be5187ea6ab64753785aad519a533def80a41e\n        /* \"contract.sol\":1837:1844  _amount */\n      dup4\n        /* \"contract.sol\":1823:1845  MoneySent(_to,_amount) */\n      mload(0x40)\n      tag_76\n      swap2\n      swap1\n      tag_14\n      jump\t// in\n    tag_76:\n      mload(0x40)\n      dup1\n      swap2\n      sub\n      swap1\n      log2\n        /* \"contract.sol\":1856:1859  _to */\n      dup3\n        /* \"contract.sol\":1856:1868  _to.transfer */\n      0xffffffffffffffffffffffffffffffffffffffff\n      and\n        /* \"contract.sol\":1856:1877  _to.transfer(_amount) */\n      0x08fc\n        /* \"contract.sol\":1869:1876  _amount */\n      dup4\n        /* \"contract.sol\":1856:1877  _to.transfer(_amount) */\n      swap1\n      dup2\n      iszero\n      mul\n      swap1\n      mload(0x40)\n      0x00\n      mload(0x40)\n      dup1\n      dup4\n      sub\n      dup2\n      dup6\n      dup9\n      dup9\n      call\n      swap4\n      pop\n      pop\n      pop\n      pop\n      iszero\n      dup1\n      iszero\n      tag_78\n      jumpi\n      returndatasize\n      0x00\n      dup1\n      returndatacopy\n      revert(0x00, returndatasize)\n    tag_78:\n      pop\n        /* \"contract.sol\":1535:1885  function withdrawMoney(address payable _to, uint _amount) public ownerOrAllowed(_amount) {\r... */\n      pop\n      pop\n      pop\n      jump\t// out\n        /* \"https://github.com/OpenZeppelin/openzeppelin-contracts/blob/master/contracts/access/Ownable.sol\":1918:2116  function transferOwnership(address newOwner) public virtual onlyOwner {... */\n    tag_42:\n        /* \"https://github.com/OpenZeppelin/openzeppelin-contracts/blob/master/contracts/access/Ownable.sol\":1259:1271  _msgSender() */\n      tag_80\n        /* \"https://github.com/OpenZeppelin/openzeppelin-contracts/blob/master/contracts/access/Ownable.sol\":1259:1269  _msgSender */\n      tag_50\n        /* \"https://github.com/OpenZeppelin/openzeppelin-contracts/blob/master/contracts/access/Ownable.sol\":1259:1271  _msgSender() */\n      jump\t// in\n    tag_80:\n        /* \"https://github.com/OpenZeppelin/openzeppelin-contracts/blob/master/contracts/access/Ownable.sol\":1248:1271  owner() == _msgSender() */\n      0xffffffffffffffffffffffffffffffffffffffff\n      and\n        /* \"https://github.com/OpenZeppelin/openzeppelin-contracts/blob/master/contracts/access/Ownable.sol\":1248:1255  owner() */\n      tag_81\n        /* \"https://github.com/OpenZeppelin/openzeppelin-contracts/blob/master/contracts/access/Ownable.sol\":1248:1253  owner */\n      tag_26\n        /* \"https://github.com/OpenZeppelin/openzeppelin-contracts/blob/master/contracts/access/Ownable.sol\":1248:1255  owner() */\n      jump\t// in\n    tag_81:\n        /* \"https://github.com/OpenZeppelin/openzeppelin-contracts/blob/master/contracts/access/Ownable.sol\":1248:1271  owner() == _msgSender() */\n      0xffffffffffffffffffffffffffffffffffffffff\n      and\n      eq\n        /* \"https://github.com/OpenZeppelin/openzeppelin-contracts/blob/master/contracts/access/Ownable.sol\":1240:1308  require(owner() == _msgSender(), \"Ownable: caller is not the owner\") */\n      tag_82\n      jumpi\n      mload(0x40)\n      0x08c379a000000000000000000000000000000000000000000000000000000000\n      dup2\n      mstore\n      0x04\n      add\n      tag_83\n      swap1\n      tag_54\n      jump\t// in\n    tag_83:\n      mload(0x40)\n      dup1\n      swap2\n      sub\n      swap1\n      revert\n    tag_82:\n        /* \"https://github.com/OpenZeppelin/openzeppelin-contracts/blob/master/contracts/access/Ownable.sol\":2026:2027  0 */\n      0x00\n        /* \"https://github.com/OpenZeppelin/openzeppelin-contracts/blob/master/contracts/access/Ownable.sol\":2006:2028  newOwner != address(0) */\n      0xffffffffffffffffffffffffffffffffffffffff\n      and\n        /* \"https://github.com/OpenZeppelin/openzeppelin-contracts/blob/master/contracts/access/Ownable.sol\":2006:2014  newOwner */\n      dup2\n        /* \"https://github.com/OpenZeppelin/openzeppelin-contracts/blob/master/contracts/access/Ownable.sol\":2006:2028  newOwner != address(0) */\n      0xffffffffffffffffffffffffffffffffffffffff\n      and\n      eq\n      iszero\n        /* \"https://github.com/OpenZeppelin/openzeppelin-contracts/blob/master/contracts/access/Ownable.sol\":1998:2071  require(newOwner != address(0), \"Ownable: new owner is the zero address\") */\n      tag_85\n      jumpi\n      mload(0x40)\n      0x08c379a000000000000000000000000000000000000000000000000000000000\n      dup2\n      mstore\n      0x04\n      add\n      tag_86\n      swap1\n      tag_87\n      jump\t// in\n    tag_86:\n      mload(0x40)\n      dup1\n      swap2\n      sub\n      swap1\n      revert\n    tag_85:\n        /* \"https://github.com/OpenZeppelin/openzeppelin-contracts/blob/master/contracts/access/Ownable.sol\":2081:2109  _transferOwnership(newOwner) */\n      tag_88\n        /* \"https://github.com/OpenZeppelin/openzeppelin-contracts/blob/master/contracts/access/Ownable.sol\":2100:2108  newOwner */\n      dup2\n        /* \"https://github.com/OpenZeppelin/openzeppelin-contracts/blob/master/contracts/access/Ownable.sol\":2081:2099  _transferOwnership */\n      tag_57\n        /* \"https://github.com/OpenZeppelin/openzeppelin-contracts/blob/master/contracts/access/Ownable.sol\":2081:2109  _transferOwnership(newOwner) */\n      jump\t// in\n    tag_88:\n        /* \"https://github.com/OpenZeppelin/openzeppelin-contracts/blob/master/contracts/access/Ownable.sol\":1918:2116  function transferOwnership(address newOwner) public virtual onlyOwner {... */\n      pop\n      jump\t// out\n        /* \"contract.sol\":658:847  function addAllowance(address _who, uint _amount) public onlyOwner{\r... */\n    tag_47:\n        /* \"https://github.com/OpenZeppelin/openzeppelin-contracts/blob/master/contracts/access/Ownable.sol\":1259:1271  _msgSender() */\n      tag_90\n        /* \"https://github.com/OpenZeppelin/openzeppelin-contracts/blob/master/contracts/access/Ownable.sol\":1259:1269  _msgSender */\n      tag_50\n        /* \"https://github.com/OpenZeppelin/openzeppelin-contracts/blob/master/contracts/access/Ownable.sol\":1259:1271  _msgSender() */\n      jump\t// in\n    tag_90:\n        /* \"https://github.com/OpenZeppelin/openzeppelin-contracts/blob/master/contracts/access/Ownable.sol\":1248:1271  owner() == _msgSender() */\n      0xffffffffffffffffffffffffffffffffffffffff\n      and\n        /* \"https://github.com/OpenZeppelin/openzeppelin-contracts/blob/master/contracts/access/Ownable.sol\":1248:1255  owner() */\n      tag_91\n        /* \"https://github.com/OpenZeppelin/openzeppelin-contracts/blob/master/contracts/access/Ownable.sol\":1248:1253  owner */\n      tag_26\n        /* \"https://github.com/OpenZeppelin/openzeppelin-contracts/blob/master/contracts/access/Ownable.sol\":1248:1255  owner() */\n      jump\t// in\n    tag_91:\n        /* \"https://github.com/OpenZeppelin/openzeppelin-contracts/blob/master/contracts/access/Ownable.sol\":1248:1271  owner() == _msgSender() */\n      0xffffffffffffffffffffffffffffffffffffffff\n      and\n      eq\n        /* \"https://github.com/OpenZeppelin/openzeppelin-contracts/blob/master/contracts/access/Ownable.sol\":1240:1308  require(owner() == _msgSender(), \"Ownable: caller is not the owner\") */\n      tag_92\n      jumpi\n      mload(0x40)\n      0x08c379a000000000000000000000000000000000000000000000000000000000\n      dup2\n      mstore\n      0x04\n      add\n      tag_93\n      swap1\n      tag_54\n      jump\t// in\n    tag_93:\n      mload(0x40)\n      dup1\n      swap2\n      sub\n      swap1\n      revert\n    tag_92:\n        /* \"contract.sol\":762:773  msg .sender */\n      caller\n        /* \"contract.sol\":740:798  AllowanceChanged(_who,msg .sender,allowance[_who],_amount) */\n      0xffffffffffffffffffffffffffffffffffffffff\n      and\n        /* \"contract.sol\":757:761  _who */\n      dup3\n        /* \"contract.sol\":740:798  AllowanceChanged(_who,msg .sender,allowance[_who],_amount) */\n      0xffffffffffffffffffffffffffffffffffffffff\n      and\n      0x3691d1a86d99355e52b689ca70a7bdf6d80763237a6aa06e5fa43964eac7244b\n        /* \"contract.sol\":774:783  allowance */\n      0x01\n        /* \"contract.sol\":774:789  allowance[_who] */\n      0x00\n        /* \"contract.sol\":784:788  _who */\n      dup7\n        /* \"contract.sol\":774:789  allowance[_who] */\n      0xffffffffffffffffffffffffffffffffffffffff\n      and\n      0xffffffffffffffffffffffffffffffffffffffff\n      and\n      dup2\n      mstore\n      0x20\n      add\n      swap1\n      dup2\n      mstore\n      0x20\n      add\n      0x00\n      keccak256\n      sload\n        /* \"contract.sol\":790:797  _amount */\n      dup5\n        /* \"contract.sol\":740:798  AllowanceChanged(_who,msg .sender,allowance[_who],_amount) */\n      mload(0x40)\n      tag_95\n      swap3\n      swap2\n      swap1\n      tag_96\n      jump\t// in\n    tag_95:\n      mload(0x40)\n      dup1\n      swap2\n      sub\n      swap1\n      log3\n        /* \"contract.sol\":827:834  _amount */\n      dup1\n        /* \"contract.sol\":809:818  allowance */\n      0x01\n        /* \"contract.sol\":809:824  allowance[_who] */\n      0x00\n        /* \"contract.sol\":819:823  _who */\n      dup5\n        /* \"contract.sol\":809:824  allowance[_who] */\n      0xffffffffffffffffffffffffffffffffffffffff\n      and\n      0xffffffffffffffffffffffffffffffffffffffff\n      and\n      dup2\n      mstore\n      0x20\n      add\n      swap1\n      dup2\n      mstore\n      0x20\n      add\n      0x00\n      keccak256\n        /* \"contract.sol\":809:834  allowance[_who] = _amount */\n      dup2\n      swap1\n      sstore\n      pop\n        /* \"contract.sol\":658:847  function addAllowance(address _who, uint _amount) public onlyOwner{\r... */\n      pop\n      pop\n      jump\t// out\n        /* \"https://github.com/OpenZeppelin/openzeppelin-contracts/blob/master/contracts/utils/Context.sol\":640:736  function _msgSender() internal view virtual returns (address) {... */\n    tag_50:\n        /* \"https://github.com/OpenZeppelin/openzeppelin-contracts/blob/master/contracts/utils/Context.sol\":693:700  address */\n      0x00\n        /* \"https://github.com/OpenZeppelin/openzeppelin-contracts/blob/master/contracts/utils/Context.sol\":719:729  msg.sender */\n      caller\n        /* \"https://github.com/OpenZeppelin/openzeppelin-contracts/blob/master/contracts/utils/Context.sol\":712:729  return msg.sender */\n      swap1\n      pop\n        /* \"https://github.com/OpenZeppelin/openzeppelin-contracts/blob/master/contracts/utils/Context.sol\":640:736  function _msgSender() internal view virtual returns (address) {... */\n      swap1\n      jump\t// out\n        /* \"https://github.com/OpenZeppelin/openzeppelin-contracts/blob/master/contracts/access/Ownable.sol\":2270:2457  function _transferOwnership(address newOwner) internal virtual {... */\n    tag_57:\n        /* \"https://github.com/OpenZeppelin/openzeppelin-contracts/blob/master/contracts/access/Ownable.sol\":2343:2359  address oldOwner */\n      0x00\n        /* \"https://github.com/OpenZeppelin/openzeppelin-contracts/blob/master/contracts/access/Ownable.sol\":2362:2368  _owner */\n      dup1\n      0x00\n      swap1\n      sload\n      swap1\n      0x0100\n      exp\n      swap1\n      div\n      0xffffffffffffffffffffffffffffffffffffffff\n      and\n        /* \"https://github.com/OpenZeppelin/openzeppelin-contracts/blob/master/contracts/access/Ownable.sol\":2343:2368  address oldOwner = _owner */\n      swap1\n      pop\n        /* \"https://github.com/OpenZeppelin/openzeppelin-contracts/blob/master/contracts/access/Ownable.sol\":2387:2395  newOwner */\n      dup2\n        /* \"https://github.com/OpenZeppelin/openzeppelin-contracts/blob/master/contracts/access/Ownable.sol\":2378:2384  _owner */\n      0x00\n      dup1\n        /* \"https://github.com/OpenZeppelin/openzeppelin-contracts/blob/master/contracts/access/Ownable.sol\":2378:2395  _owner = newOwner */\n      0x0100\n      exp\n      dup2\n      sload\n      dup2\n      0xffffffffffffffffffffffffffffffffffffffff\n      mul\n      not\n      and\n      swap1\n      dup4\n      0xffffffffffffffffffffffffffffffffffffffff\n      and\n      mul\n      or\n      swap1\n      sstore\n      pop\n        /* \"https://github.com/OpenZeppelin/openzeppelin-contracts/blob/master/contracts/access/Ownable.sol\":2441:2449  newOwner */\n      dup2\n        /* \"https://github.com/OpenZeppelin/openzeppelin-contracts/blob/master/contracts/access/Ownable.sol\":2410:2450  OwnershipTransferred(oldOwner, newOwner) */\n      0xffffffffffffffffffffffffffffffffffffffff\n      and\n        /* \"https://github.com/OpenZeppelin/openzeppelin-contracts/blob/master/contracts/access/Ownable.sol\":2431:2439  oldOwner */\n      dup2\n        /* \"https://github.com/OpenZeppelin/openzeppelin-contracts/blob/master/contracts/access/Ownable.sol\":2410:2450  OwnershipTransferred(oldOwner, newOwner) */\n      0xffffffffffffffffffffffffffffffffffffffff\n      and\n      0x8be0079c531659141344cd1fd0a4f28419497f9722a3daafe3b4186f6b6457e0\n      mload(0x40)\n      mload(0x40)\n      dup1\n      swap2\n      sub\n      swap1\n      log3\n        /* \"https://github.com/OpenZeppelin/openzeppelin-contracts/blob/master/contracts/access/Ownable.sol\":2333:2457  {... */\n      pop\n        /* \"https://github.com/OpenZeppelin/openzeppelin-contracts/blob/master/contracts/access/Ownable.sol\":2270:2457  function _transferOwnership(address newOwner) internal virtual {... */\n      pop\n      jump\t// out\n        /* \"contract.sol\":1133:1354  function reducedAllowance(address _who,uint _amount) internal {\r... */\n    tag_75:\n        /* \"contract.sol\":1233:1243  msg.sender */\n      caller\n        /* \"contract.sol\":1211:1289  AllowanceChanged(_who,msg.sender,allowance[_who],allowance[_who].sub(_amount)) */\n      0xffffffffffffffffffffffffffffffffffffffff\n      and\n        /* \"contract.sol\":1228:1232  _who */\n      dup3\n        /* \"contract.sol\":1211:1289  AllowanceChanged(_who,msg.sender,allowance[_who],allowance[_who].sub(_amount)) */\n      0xffffffffffffffffffffffffffffffffffffffff\n      and\n      0x3691d1a86d99355e52b689ca70a7bdf6d80763237a6aa06e5fa43964eac7244b\n        /* \"contract.sol\":1244:1253  allowance */\n      0x01\n        /* \"contract.sol\":1244:1259  allowance[_who] */\n      0x00\n        /* \"contract.sol\":1254:1258  _who */\n      dup7\n        /* \"contract.sol\":1244:1259  allowance[_who] */\n      0xffffffffffffffffffffffffffffffffffffffff\n      and\n      0xffffffffffffffffffffffffffffffffffffffff\n      and\n      dup2\n      mstore\n      0x20\n      add\n      swap1\n      dup2\n      mstore\n      0x20\n      add\n      0x00\n      keccak256\n      sload\n        /* \"contract.sol\":1260:1288  allowance[_who].sub(_amount) */\n      tag_100\n        /* \"contract.sol\":1280:1287  _amount */\n      dup6\n        /* \"contract.sol\":1260:1269  allowance */\n      0x01\n        /* \"contract.sol\":1260:1275  allowance[_who] */\n      0x00\n        /* \"contract.sol\":1270:1274  _who */\n      dup10\n        /* \"contract.sol\":1260:1275  allowance[_who] */\n      0xffffffffffffffffffffffffffffffffffffffff\n      and\n      0xffffffffffffffffffffffffffffffffffffffff\n      and\n      dup2\n      mstore\n      0x20\n      add\n      swap1\n      dup2\n      mstore\n      0x20\n      add\n      0x00\n      keccak256\n      sload\n        /* \"contract.sol\":1260:1279  allowance[_who].sub */\n      tag_101\n      swap1\n        /* \"contract.sol\":1260:1288  allowance[_who].sub(_amount) */\n      swap2\n      swap1\n      0xffffffff\n      and\n      jump\t// in\n    tag_100:\n        /* \"contract.sol\":1211:1289  AllowanceChanged(_who,msg.sender,allowance[_who],allowance[_who].sub(_amount)) */\n      mload(0x40)\n      tag_102\n      swap3\n      swap2\n      swap1\n      tag_96\n      jump\t// in\n    tag_102:\n      mload(0x40)\n      dup1\n      swap2\n      sub\n      swap1\n      log3\n        /* \"contract.sol\":1317:1345  allowance[_who].sub(_amount) */\n      tag_103\n        /* \"contract.sol\":1337:1344  _amount */\n      dup2\n        /* \"contract.sol\":1317:1326  allowance */\n      0x01\n        /* \"contract.sol\":1317:1332  allowance[_who] */\n      0x00\n        /* \"contract.sol\":1327:1331  _who */\n      dup6\n        /* \"contract.sol\":1317:1332  allowance[_who] */\n      0xffffffffffffffffffffffffffffffffffffffff\n      and\n      0xffffffffffffffffffffffffffffffffffffffff\n      and\n      dup2\n      mstore\n      0x20\n      add\n      swap1\n      dup2\n      mstore\n      0x20\n      add\n      0x00\n      keccak256\n      sload\n        /* \"contract.sol\":1317:1336  allowance[_who].sub */\n      tag_101\n      swap1\n        /* \"contract.sol\":1317:1345  allowance[_who].sub(_amount) */\n      swap2\n      swap1\n      0xffffffff\n      and\n      jump\t// in\n    tag_103:\n        /* \"contract.sol\":1300:1309  allowance */\n      0x01\n        /* \"contract.sol\":1300:1315  allowance[_who] */\n      0x00\n        /* \"contract.sol\":1310:1314  _who */\n      dup5\n        /* \"contract.sol\":1300:1315  allowance[_who] */\n      0xffffffffffffffffffffffffffffffffffffffff\n      and\n      0xffffffffffffffffffffffffffffffffffffffff\n      and\n      dup2\n      mstore\n      0x20\n      add\n      swap1\n      dup2\n      mstore\n      0x20\n      add\n      0x00\n      keccak256\n        /* \"contract.sol\":1300:1345  allowance[_who] =allowance[_who].sub(_amount) */\n      dup2\n      swap1\n      sstore\n      pop\n        /* \"contract.sol\":1133:1354  function reducedAllowance(address _who,uint _amount) internal {\r... */\n      pop\n      pop\n      jump\t// out\n        /* \"https://github.com/OpenZeppelin/openzeppelin-contracts/blob/master/contracts/utils/math/SafeMath.sol\":3107:3203  function sub(uint256 a, uint256 b) internal pure returns (uint256) {... */\n    tag_101:\n        /* \"https://github.com/OpenZeppelin/openzeppelin-contracts/blob/master/contracts/utils/math/SafeMath.sol\":3165:3172  uint256 */\n      0x00\n        /* \"https://github.com/OpenZeppelin/openzeppelin-contracts/blob/master/contracts/utils/math/SafeMath.sol\":3195:3196  b */\n      dup2\n        /* \"https://github.com/OpenZeppelin/openzeppelin-contracts/blob/master/contracts/utils/math/SafeMath.sol\":3191:3192  a */\n      dup4\n        /* \"https://github.com/OpenZeppelin/openzeppelin-contracts/blob/master/contracts/utils/math/SafeMath.sol\":3191:3196  a - b */\n      tag_105\n      swap2\n      swap1\n      tag_106\n      jump\t// in\n    tag_105:\n        /* \"https://github.com/OpenZeppelin/openzeppelin-contracts/blob/master/contracts/utils/math/SafeMath.sol\":3184:3196  return a - b */\n      swap1\n      pop\n        /* \"https://github.com/OpenZeppelin/openzeppelin-contracts/blob/master/contracts/utils/math/SafeMath.sol\":3107:3203  function sub(uint256 a, uint256 b) internal pure returns (uint256) {... */\n      swap3\n      swap2\n      pop\n      pop\n      jump\t// out\n        /* \"#utility.yul\":7:146   */\n    tag_108:\n        /* \"#utility.yul\":53:58   */\n      0x00\n        /* \"#utility.yul\":91:97   */\n      dup2\n        /* \"#utility.yul\":78:98   */\n      calldataload\n        /* \"#utility.yul\":69:98   */\n      swap1\n      pop\n        /* \"#utility.yul\":107:140   */\n      tag_110\n        /* \"#utility.yul\":134:139   */\n      dup2\n        /* \"#utility.yul\":107:140   */\n      tag_111\n      jump\t// in\n    tag_110:\n        /* \"#utility.yul\":7:146   */\n      swap3\n      swap2\n      pop\n      pop\n      jump\t// out\n        /* \"#utility.yul\":152:307   */\n    tag_112:\n        /* \"#utility.yul\":206:211   */\n      0x00\n        /* \"#utility.yul\":244:250   */\n      dup2\n        /* \"#utility.yul\":231:251   */\n      calldataload\n        /* \"#utility.yul\":222:251   */\n      swap1\n      pop\n        /* \"#utility.yul\":260:301   */\n      tag_114\n        /* \"#utility.yul\":295:300   */\n      dup2\n        /* \"#utility.yul\":260:301   */\n      tag_115\n      jump\t// in\n    tag_114:\n        /* \"#utility.yul\":152:307   */\n      swap3\n      swap2\n      pop\n      pop\n      jump\t// out\n        /* \"#utility.yul\":313:452   */\n    tag_116:\n        /* \"#utility.yul\":359:364   */\n      0x00\n        /* \"#utility.yul\":397:403   */\n      dup2\n        /* \"#utility.yul\":384:404   */\n      calldataload\n        /* \"#utility.yul\":375:404   */\n      swap1\n      pop\n        /* \"#utility.yul\":413:446   */\n      tag_118\n        /* \"#utility.yul\":440:445   */\n      dup2\n        /* \"#utility.yul\":413:446   */\n      tag_119\n      jump\t// in\n    tag_118:\n        /* \"#utility.yul\":313:452   */\n      swap3\n      swap2\n      pop\n      pop\n      jump\t// out\n        /* \"#utility.yul\":458:787   */\n    tag_18:\n        /* \"#utility.yul\":517:523   */\n      0x00\n        /* \"#utility.yul\":566:568   */\n      0x20\n        /* \"#utility.yul\":554:563   */\n      dup3\n        /* \"#utility.yul\":545:552   */\n      dup5\n        /* \"#utility.yul\":541:564   */\n      sub\n        /* \"#utility.yul\":537:569   */\n      slt\n        /* \"#utility.yul\":534:653   */\n      iszero\n      tag_121\n      jumpi\n        /* \"#utility.yul\":572:651   */\n      tag_122\n      tag_123\n      jump\t// in\n    tag_122:\n        /* \"#utility.yul\":534:653   */\n    tag_121:\n        /* \"#utility.yul\":692:693   */\n      0x00\n        /* \"#utility.yul\":717:770   */\n      tag_124\n        /* \"#utility.yul\":762:769   */\n      dup5\n        /* \"#utility.yul\":753:759   */\n      dup3\n        /* \"#utility.yul\":742:751   */\n      dup6\n        /* \"#utility.yul\":738:760   */\n      add\n        /* \"#utility.yul\":717:770   */\n      tag_108\n      jump\t// in\n    tag_124:\n        /* \"#utility.yul\":707:770   */\n      swap2\n      pop\n        /* \"#utility.yul\":663:780   */\n      pop\n        /* \"#utility.yul\":458:787   */\n      swap3\n      swap2\n      pop\n      pop\n      jump\t// out\n        /* \"#utility.yul\":793:1283   */\n    tag_37:\n        /* \"#utility.yul\":869:875   */\n      0x00\n        /* \"#utility.yul\":877:883   */\n      dup1\n        /* \"#utility.yul\":926:928   */\n      0x40\n        /* \"#utility.yul\":914:923   */\n      dup4\n        /* \"#utility.yul\":905:912   */\n      dup6\n        /* \"#utility.yul\":901:924   */\n      sub\n        /* \"#utility.yul\":897:929   */\n      slt\n        /* \"#utility.yul\":894:1013   */\n      iszero\n      tag_126\n      jumpi\n        /* \"#utility.yul\":932:1011   */\n      tag_127\n      tag_123\n      jump\t// in\n    tag_127:\n        /* \"#utility.yul\":894:1013   */\n    tag_126:\n        /* \"#utility.yul\":1052:1053   */\n      0x00\n        /* \"#utility.yul\":1077:1138   */\n      tag_128\n        /* \"#utility.yul\":1130:1137   */\n      dup6\n        /* \"#utility.yul\":1121:1127   */\n      dup3\n        /* \"#utility.yul\":1110:1119   */\n      dup7\n        /* \"#utility.yul\":1106:1128   */\n      add\n        /* \"#utility.yul\":1077:1138   */\n      tag_112\n      jump\t// in\n    tag_128:\n        /* \"#utility.yul\":1067:1138   */\n      swap3\n      pop\n        /* \"#utility.yul\":1023:1148   */\n      pop\n        /* \"#utility.yul\":1187:1189   */\n      0x20\n        /* \"#utility.yul\":1213:1266   */\n      tag_129\n        /* \"#utility.yul\":1258:1265   */\n      dup6\n        /* \"#utility.yul\":1249:1255   */\n      dup3\n        /* \"#utility.yul\":1238:1247   */\n      dup7\n        /* \"#utility.yul\":1234:1256   */\n      add\n        /* \"#utility.yul\":1213:1266   */\n      tag_116\n      jump\t// in\n    tag_129:\n        /* \"#utility.yul\":1203:1266   */\n      swap2\n      pop\n        /* \"#utility.yul\":1158:1276   */\n      pop\n        /* \"#utility.yul\":793:1283   */\n      swap3\n      pop\n      swap3\n      swap1\n      pop\n      jump\t// out\n        /* \"#utility.yul\":1289:1763   */\n    tag_46:\n        /* \"#utility.yul\":1357:1363   */\n      0x00\n        /* \"#utility.yul\":1365:1371   */\n      dup1\n        /* \"#utility.yul\":1414:1416   */\n      0x40\n        /* \"#utility.yul\":1402:1411   */\n      dup4\n        /* \"#utility.yul\":1393:1400   */\n      dup6\n        /* \"#utility.yul\":1389:1412   */\n      sub\n        /* \"#utility.yul\":1385:1417   */\n      slt\n        /* \"#utility.yul\":1382:1501   */\n      iszero\n      tag_131\n      jumpi\n        /* \"#utility.yul\":1420:1499   */\n      tag_132\n      tag_123\n      jump\t// in\n    tag_132:\n        /* \"#utility.yul\":1382:1501   */\n    tag_131:\n        /* \"#utility.yul\":1540:1541   */\n      0x00\n        /* \"#utility.yul\":1565:1618   */\n      tag_133\n        /* \"#utility.yul\":1610:1617   */\n      dup6\n        /* \"#utility.yul\":1601:1607   */\n      dup3\n        /* \"#utility.yul\":1590:1599   */\n      dup7\n        /* \"#utility.yul\":1586:1608   */\n      add\n        /* \"#utility.yul\":1565:1618   */\n      tag_108\n      jump\t// in\n    tag_133:\n        /* \"#utility.yul\":1555:1618   */\n      swap3\n      pop\n        /* \"#utility.yul\":1511:1628   */\n      pop\n        /* \"#utility.yul\":1667:1669   */\n      0x20\n        /* \"#utility.yul\":1693:1746   */\n      tag_134\n        /* \"#utility.yul\":1738:1745   */\n      dup6\n        /* \"#utility.yul\":1729:1735   */\n      dup3\n        /* \"#utility.yul\":1718:1727   */\n      dup7\n        /* \"#utility.yul\":1714:1736   */\n      add\n        /* \"#utility.yul\":1693:1746   */\n      tag_116\n      jump\t// in\n    tag_134:\n        /* \"#utility.yul\":1683:1746   */\n      swap2\n      pop\n        /* \"#utility.yul\":1638:1756   */\n      pop\n        /* \"#utility.yul\":1289:1763   */\n      swap3\n      pop\n      swap3\n      swap1\n      pop\n      jump\t// out\n        /* \"#utility.yul\":1769:1887   */\n    tag_135:\n        /* \"#utility.yul\":1856:1880   */\n      tag_137\n        /* \"#utility.yul\":1874:1879   */\n      dup2\n        /* \"#utility.yul\":1856:1880   */\n      tag_138\n      jump\t// in\n    tag_137:\n        /* \"#utility.yul\":1851:1854   */\n      dup3\n        /* \"#utility.yul\":1844:1881   */\n      mstore\n        /* \"#utility.yul\":1769:1887   */\n      pop\n      pop\n      jump\t// out\n        /* \"#utility.yul\":1893:2002   */\n    tag_139:\n        /* \"#utility.yul\":1974:1995   */\n      tag_141\n        /* \"#utility.yul\":1989:1994   */\n      dup2\n        /* \"#utility.yul\":1974:1995   */\n      tag_142\n      jump\t// in\n    tag_141:\n        /* \"#utility.yul\":1969:1972   */\n      dup3\n        /* \"#utility.yul\":1962:1996   */\n      mstore\n        /* \"#utility.yul\":1893:2002   */\n      pop\n      pop\n      jump\t// out\n        /* \"#utility.yul\":2008:2374   */\n    tag_143:\n        /* \"#utility.yul\":2150:2153   */\n      0x00\n        /* \"#utility.yul\":2171:2238   */\n      tag_145\n        /* \"#utility.yul\":2235:2237   */\n      0x26\n        /* \"#utility.yul\":2230:2233   */\n      dup4\n        /* \"#utility.yul\":2171:2238   */\n      tag_146\n      jump\t// in\n    tag_145:\n        /* \"#utility.yul\":2164:2238   */\n      swap2\n      pop\n        /* \"#utility.yul\":2247:2340   */\n      tag_147\n        /* \"#utility.yul\":2336:2339   */\n      dup3\n        /* \"#utility.yul\":2247:2340   */\n      tag_148\n      jump\t// in\n    tag_147:\n        /* \"#utility.yul\":2365:2367   */\n      0x40\n        /* \"#utility.yul\":2360:2363   */\n      dup3\n        /* \"#utility.yul\":2356:2368   */\n      add\n        /* \"#utility.yul\":2349:2368   */\n      swap1\n      pop\n        /* \"#utility.yul\":2008:2374   */\n      swap2\n      swap1\n      pop\n      jump\t// out\n        /* \"#utility.yul\":2380:2746   */\n    tag_149:\n        /* \"#utility.yul\":2522:2525   */\n      0x00\n        /* \"#utility.yul\":2543:2610   */\n      tag_151\n        /* \"#utility.yul\":2607:2609   */\n      0x12\n        /* \"#utility.yul\":2602:2605   */\n      dup4\n        /* \"#utility.yul\":2543:2610   */\n      tag_146\n      jump\t// in\n    tag_151:\n        /* \"#utility.yul\":2536:2610   */\n      swap2\n      pop\n        /* \"#utility.yul\":2619:2712   */\n      tag_152\n        /* \"#utility.yul\":2708:2711   */\n      dup3\n        /* \"#utility.yul\":2619:2712   */\n      tag_153\n      jump\t// in\n    tag_152:\n        /* \"#utility.yul\":2737:2739   */\n      0x20\n        /* \"#utility.yul\":2732:2735   */\n      dup3\n        /* \"#utility.yul\":2728:2740   */\n      add\n        /* \"#utility.yul\":2721:2740   */\n      swap1\n      pop\n        /* \"#utility.yul\":2380:2746   */\n      swap2\n      swap1\n      pop\n      jump\t// out\n        /* \"#utility.yul\":2752:3118   */\n    tag_154:\n        /* \"#utility.yul\":2894:2897   */\n      0x00\n        /* \"#utility.yul\":2915:2982   */\n      tag_156\n        /* \"#utility.yul\":2979:2981   */\n      0x1e\n        /* \"#utility.yul\":2974:2977   */\n      dup4\n        /* \"#utility.yul\":2915:2982   */\n      tag_146\n      jump\t// in\n    tag_156:\n        /* \"#utility.yul\":2908:2982   */\n      swap2\n      pop\n        /* \"#utility.yul\":2991:3084   */\n      tag_157\n        /* \"#utility.yul\":3080:3083   */\n      dup3\n        /* \"#utility.yul\":2991:3084   */\n      tag_158\n      jump\t// in\n    tag_157:\n        /* \"#utility.yul\":3109:3111   */\n      0x20\n        /* \"#utility.yul\":3104:3107   */\n      dup3\n        /* \"#utility.yul\":3100:3112   */\n      add\n        /* \"#utility.yul\":3093:3112   */\n      swap1\n      pop\n        /* \"#utility.yul\":2752:3118   */\n      swap2\n      swap1\n      pop\n      jump\t// out\n        /* \"#utility.yul\":3124:3490   */\n    tag_159:\n        /* \"#utility.yul\":3266:3269   */\n      0x00\n        /* \"#utility.yul\":3287:3354   */\n      tag_161\n        /* \"#utility.yul\":3351:3353   */\n      0x20\n        /* \"#utility.yul\":3346:3349   */\n      dup4\n        /* \"#utility.yul\":3287:3354   */\n      tag_146\n      jump\t// in\n    tag_161:\n        /* \"#utility.yul\":3280:3354   */\n      swap2\n      pop\n        /* \"#utility.yul\":3363:3456   */\n      tag_162\n        /* \"#utility.yul\":3452:3455   */\n      dup3\n        /* \"#utility.yul\":3363:3456   */\n      tag_163\n      jump\t// in\n    tag_162:\n        /* \"#utility.yul\":3481:3483   */\n      0x20\n        /* \"#utility.yul\":3476:3479   */\n      dup3\n        /* \"#utility.yul\":3472:3484   */\n      add\n        /* \"#utility.yul\":3465:3484   */\n      swap1\n      pop\n        /* \"#utility.yul\":3124:3490   */\n      swap2\n      swap1\n      pop\n      jump\t// out\n        /* \"#utility.yul\":3496:3614   */\n    tag_164:\n        /* \"#utility.yul\":3583:3607   */\n      tag_166\n        /* \"#utility.yul\":3601:3606   */\n      dup2\n        /* \"#utility.yul\":3583:3607   */\n      tag_167\n      jump\t// in\n    tag_166:\n        /* \"#utility.yul\":3578:3581   */\n      dup3\n        /* \"#utility.yul\":3571:3608   */\n      mstore\n        /* \"#utility.yul\":3496:3614   */\n      pop\n      pop\n      jump\t// out\n        /* \"#utility.yul\":3620:3842   */\n    tag_28:\n        /* \"#utility.yul\":3713:3717   */\n      0x00\n        /* \"#utility.yul\":3751:3753   */\n      0x20\n        /* \"#utility.yul\":3740:3749   */\n      dup3\n        /* \"#utility.yul\":3736:3754   */\n      add\n        /* \"#utility.yul\":3728:3754   */\n      swap1\n      pop\n        /* \"#utility.yul\":3764:3835   */\n      tag_169\n        /* \"#utility.yul\":3832:3833   */\n      0x00\n        /* \"#utility.yul\":3821:3830   */\n      dup4\n        /* \"#utility.yul\":3817:3834   */\n      add\n        /* \"#utility.yul\":3808:3814   */\n      dup5\n        /* \"#utility.yul\":3764:3835   */\n      tag_135\n      jump\t// in\n    tag_169:\n        /* \"#utility.yul\":3620:3842   */\n      swap3\n      swap2\n      pop\n      pop\n      jump\t// out\n        /* \"#utility.yul\":3848:4058   */\n    tag_33:\n        /* \"#utility.yul\":3935:3939   */\n      0x00\n        /* \"#utility.yul\":3973:3975   */\n      0x20\n        /* \"#utility.yul\":3962:3971   */\n      dup3\n        /* \"#utility.yul\":3958:3976   */\n      add\n        /* \"#utility.yul\":3950:3976   */\n      swap1\n      pop\n        /* \"#utility.yul\":3986:4051   */\n      tag_171\n        /* \"#utility.yul\":4048:4049   */\n      0x00\n        /* \"#utility.yul\":4037:4046   */\n      dup4\n        /* \"#utility.yul\":4033:4050   */\n      add\n        /* \"#utility.yul\":4024:4030   */\n      dup5\n        /* \"#utility.yul\":3986:4051   */\n      tag_139\n      jump\t// in\n    tag_171:\n        /* \"#utility.yul\":3848:4058   */\n      swap3\n      swap2\n      pop\n      pop\n      jump\t// out\n        /* \"#utility.yul\":4064:4483   */\n    tag_87:\n        /* \"#utility.yul\":4230:4234   */\n      0x00\n        /* \"#utility.yul\":4268:4270   */\n      0x20\n        /* \"#utility.yul\":4257:4266   */\n      dup3\n        /* \"#utility.yul\":4253:4271   */\n      add\n        /* \"#utility.yul\":4245:4271   */\n      swap1\n      pop\n        /* \"#utility.yul\":4317:4326   */\n      dup2\n        /* \"#utility.yul\":4311:4315   */\n      dup2\n        /* \"#utility.yul\":4307:4327   */\n      sub\n        /* \"#utility.yul\":4303:4304   */\n      0x00\n        /* \"#utility.yul\":4292:4301   */\n      dup4\n        /* \"#utility.yul\":4288:4305   */\n      add\n        /* \"#utility.yul\":4281:4328   */\n      mstore\n        /* \"#utility.yul\":4345:4476   */\n      tag_173\n        /* \"#utility.yul\":4471:4475   */\n      dup2\n        /* \"#utility.yul\":4345:4476   */\n      tag_143\n      jump\t// in\n    tag_173:\n        /* \"#utility.yul\":4337:4476   */\n      swap1\n      pop\n        /* \"#utility.yul\":4064:4483   */\n      swap2\n      swap1\n      pop\n      jump\t// out\n        /* \"#utility.yul\":4489:4908   */\n    tag_67:\n        /* \"#utility.yul\":4655:4659   */\n      0x00\n        /* \"#utility.yul\":4693:4695   */\n      0x20\n        /* \"#utility.yul\":4682:4691   */\n      dup3\n        /* \"#utility.yul\":4678:4696   */\n      add\n        /* \"#utility.yul\":4670:4696   */\n      swap1\n      pop\n        /* \"#utility.yul\":4742:4751   */\n      dup2\n        /* \"#utility.yul\":4736:4740   */\n      dup2\n        /* \"#utility.yul\":4732:4752   */\n      sub\n        /* \"#utility.yul\":4728:4729   */\n      0x00\n        /* \"#utility.yul\":4717:4726   */\n      dup4\n        /* \"#utility.yul\":4713:4730   */\n      add\n        /* \"#utility.yul\":4706:4753   */\n      mstore\n        /* \"#utility.yul\":4770:4901   */\n      tag_175\n        /* \"#utility.yul\":4896:4900   */\n      dup2\n        /* \"#utility.yul\":4770:4901   */\n      tag_149\n      jump\t// in\n    tag_175:\n        /* \"#utility.yul\":4762:4901   */\n      swap1\n      pop\n        /* \"#utility.yul\":4489:4908   */\n      swap2\n      swap1\n      pop\n      jump\t// out\n        /* \"#utility.yul\":4914:5333   */\n    tag_71:\n        /* \"#utility.yul\":5080:5084   */\n      0x00\n        /* \"#utility.yul\":5118:5120   */\n      0x20\n        /* \"#utility.yul\":5107:5116   */\n      dup3\n        /* \"#utility.yul\":5103:5121   */\n      add\n        /* \"#utility.yul\":5095:5121   */\n      swap1\n      pop\n        /* \"#utility.yul\":5167:5176   */\n      dup2\n        /* \"#utility.yul\":5161:5165   */\n      dup2\n        /* \"#utility.yul\":5157:5177   */\n      sub\n        /* \"#utility.yul\":5153:5154   */\n      0x00\n        /* \"#utility.yul\":5142:5151   */\n      dup4\n        /* \"#utility.yul\":5138:5155   */\n      add\n        /* \"#utility.yul\":5131:5178   */\n      mstore\n        /* \"#utility.yul\":5195:5326   */\n      tag_177\n        /* \"#utility.yul\":5321:5325   */\n      dup2\n        /* \"#utility.yul\":5195:5326   */\n      tag_154\n      jump\t// in\n    tag_177:\n        /* \"#utility.yul\":5187:5326   */\n      swap1\n      pop\n        /* \"#utility.yul\":4914:5333   */\n      swap2\n      swap1\n      pop\n      jump\t// out\n        /* \"#utility.yul\":5339:5758   */\n    tag_54:\n        /* \"#utility.yul\":5505:5509   */\n      0x00\n        /* \"#utility.yul\":5543:5545   */\n      0x20\n        /* \"#utility.yul\":5532:5541   */\n      dup3\n        /* \"#utility.yul\":5528:5546   */\n      add\n        /* \"#utility.yul\":5520:5546   */\n      swap1\n      pop\n        /* \"#utility.yul\":5592:5601   */\n      dup2\n        /* \"#utility.yul\":5586:5590   */\n      dup2\n        /* \"#utility.yul\":5582:5602   */\n      sub\n        /* \"#utility.yul\":5578:5579   */\n      0x00\n        /* \"#utility.yul\":5567:5576   */\n      dup4\n        /* \"#utility.yul\":5563:5580   */\n      add\n        /* \"#utility.yul\":5556:5603   */\n      mstore\n        /* \"#utility.yul\":5620:5751   */\n      tag_179\n        /* \"#utility.yul\":5746:5750   */\n      dup2\n        /* \"#utility.yul\":5620:5751   */\n      tag_159\n      jump\t// in\n    tag_179:\n        /* \"#utility.yul\":5612:5751   */\n      swap1\n      pop\n        /* \"#utility.yul\":5339:5758   */\n      swap2\n      swap1\n      pop\n      jump\t// out\n        /* \"#utility.yul\":5764:5986   */\n    tag_14:\n        /* \"#utility.yul\":5857:5861   */\n      0x00\n        /* \"#utility.yul\":5895:5897   */\n      0x20\n        /* \"#utility.yul\":5884:5893   */\n      dup3\n        /* \"#utility.yul\":5880:5898   */\n      add\n        /* \"#utility.yul\":5872:5898   */\n      swap1\n      pop\n        /* \"#utility.yul\":5908:5979   */\n      tag_181\n        /* \"#utility.yul\":5976:5977   */\n      0x00\n        /* \"#utility.yul\":5965:5974   */\n      dup4\n        /* \"#utility.yul\":5961:5978   */\n      add\n        /* \"#utility.yul\":5952:5958   */\n      dup5\n        /* \"#utility.yul\":5908:5979   */\n      tag_164\n      jump\t// in\n    tag_181:\n        /* \"#utility.yul\":5764:5986   */\n      swap3\n      swap2\n      pop\n      pop\n      jump\t// out\n        /* \"#utility.yul\":5992:6324   */\n    tag_96:\n        /* \"#utility.yul\":6113:6117   */\n      0x00\n        /* \"#utility.yul\":6151:6153   */\n      0x40\n        /* \"#utility.yul\":6140:6149   */\n      dup3\n        /* \"#utility.yul\":6136:6154   */\n      add\n        /* \"#utility.yul\":6128:6154   */\n      swap1\n      pop\n        /* \"#utility.yul\":6164:6235   */\n      tag_183\n        /* \"#utility.yul\":6232:6233   */\n      0x00\n        /* \"#utility.yul\":6221:6230   */\n      dup4\n        /* \"#utility.yul\":6217:6234   */\n      add\n        /* \"#utility.yul\":6208:6214   */\n      dup6\n        /* \"#utility.yul\":6164:6235   */\n      tag_164\n      jump\t// in\n    tag_183:\n        /* \"#utility.yul\":6245:6317   */\n      tag_184\n        /* \"#utility.yul\":6313:6315   */\n      0x20\n        /* \"#utility.yul\":6302:6311   */\n      dup4\n        /* \"#utility.yul\":6298:6316   */\n      add\n        /* \"#utility.yul\":6289:6295   */\n      dup5\n        /* \"#utility.yul\":6245:6317   */\n      tag_164\n      jump\t// in\n    tag_184:\n        /* \"#utility.yul\":5992:6324   */\n      swap4\n      swap3\n      pop\n      pop\n      pop\n      jump\t// out\n        /* \"#utility.yul\":6411:6580   */\n    tag_146:\n        /* \"#utility.yul\":6495:6506   */\n      0x00\n        /* \"#utility.yul\":6529:6535   */\n      dup3\n        /* \"#utility.yul\":6524:6527   */\n      dup3\n        /* \"#utility.yul\":6517:6536   */\n      mstore\n        /* \"#utility.yul\":6569:6573   */\n      0x20\n        /* \"#utility.yul\":6564:6567   */\n      dup3\n        /* \"#utility.yul\":6560:6574   */\n      add\n        /* \"#utility.yul\":6545:6574   */\n      swap1\n      pop\n        /* \"#utility.yul\":6411:6580   */\n      swap3\n      swap2\n      pop\n      pop\n      jump\t// out\n        /* \"#utility.yul\":6586:6777   */\n    tag_106:\n        /* \"#utility.yul\":6626:6630   */\n      0x00\n        /* \"#utility.yul\":6646:6666   */\n      tag_189\n        /* \"#utility.yul\":6664:6665   */\n      dup3\n        /* \"#utility.yul\":6646:6666   */\n      tag_167\n      jump\t// in\n    tag_189:\n        /* \"#utility.yul\":6641:6666   */\n      swap2\n      pop\n        /* \"#utility.yul\":6680:6700   */\n      tag_190\n        /* \"#utility.yul\":6698:6699   */\n      dup4\n        /* \"#utility.yul\":6680:6700   */\n      tag_167\n      jump\t// in\n    tag_190:\n        /* \"#utility.yul\":6675:6700   */\n      swap3\n      pop\n        /* \"#utility.yul\":6719:6720   */\n      dup3\n        /* \"#utility.yul\":6716:6717   */\n      dup3\n        /* \"#utility.yul\":6713:6721   */\n      lt\n        /* \"#utility.yul\":6710:6744   */\n      iszero\n      tag_191\n      jumpi\n        /* \"#utility.yul\":6724:6742   */\n      tag_192\n      tag_193\n      jump\t// in\n    tag_192:\n        /* \"#utility.yul\":6710:6744   */\n    tag_191:\n        /* \"#utility.yul\":6769:6770   */\n      dup3\n        /* \"#utility.yul\":6766:6767   */\n      dup3\n        /* \"#utility.yul\":6762:6771   */\n      sub\n        /* \"#utility.yul\":6754:6771   */\n      swap1\n      pop\n        /* \"#utility.yul\":6586:6777   */\n      swap3\n      swap2\n      pop\n      pop\n      jump\t// out\n        /* \"#utility.yul\":6783:6879   */\n    tag_138:\n        /* \"#utility.yul\":6820:6827   */\n      0x00\n        /* \"#utility.yul\":6849:6873   */\n      tag_195\n        /* \"#utility.yul\":6867:6872   */\n      dup3\n        /* \"#utility.yul\":6849:6873   */\n      tag_196\n      jump\t// in\n    tag_195:\n        /* \"#utility.yul\":6838:6873   */\n      swap1\n      pop\n        /* \"#utility.yul\":6783:6879   */\n      swap2\n      swap1\n      pop\n      jump\t// out\n        /* \"#utility.yul\":6885:6989   */\n    tag_197:\n        /* \"#utility.yul\":6930:6937   */\n      0x00\n        /* \"#utility.yul\":6959:6983   */\n      tag_199\n        /* \"#utility.yul\":6977:6982   */\n      dup3\n        /* \"#utility.yul\":6959:6983   */\n      tag_196\n      jump\t// in\n    tag_199:\n        /* \"#utility.yul\":6948:6983   */\n      swap1\n      pop\n        /* \"#utility.yul\":6885:6989   */\n      swap2\n      swap1\n      pop\n      jump\t// out\n        /* \"#utility.yul\":6995:7085   */\n    tag_142:\n        /* \"#utility.yul\":7029:7036   */\n      0x00\n        /* \"#utility.yul\":7072:7077   */\n      dup2\n        /* \"#utility.yul\":7065:7078   */\n      iszero\n        /* \"#utility.yul\":7058:7079   */\n      iszero\n        /* \"#utility.yul\":7047:7079   */\n      swap1\n      pop\n        /* \"#utility.yul\":6995:7085   */\n      swap2\n      swap1\n      pop\n      jump\t// out\n        /* \"#utility.yul\":7091:7217   */\n    tag_196:\n        /* \"#utility.yul\":7128:7135   */\n      0x00\n        /* \"#utility.yul\":7168:7210   */\n      0xffffffffffffffffffffffffffffffffffffffff\n        /* \"#utility.yul\":7161:7166   */\n      dup3\n        /* \"#utility.yul\":7157:7211   */\n      and\n        /* \"#utility.yul\":7146:7211   */\n      swap1\n      pop\n        /* \"#utility.yul\":7091:7217   */\n      swap2\n      swap1\n      pop\n      jump\t// out\n        /* \"#utility.yul\":7223:7300   */\n    tag_167:\n        /* \"#utility.yul\":7260:7267   */\n      0x00\n        /* \"#utility.yul\":7289:7294   */\n      dup2\n        /* \"#utility.yul\":7278:7294   */\n      swap1\n      pop\n        /* \"#utility.yul\":7223:7300   */\n      swap2\n      swap1\n      pop\n      jump\t// out\n        /* \"#utility.yul\":7306:7486   */\n    tag_193:\n        /* \"#utility.yul\":7354:7431   */\n      0x4e487b7100000000000000000000000000000000000000000000000000000000\n        /* \"#utility.yul\":7351:7352   */\n      0x00\n        /* \"#utility.yul\":7344:7432   */\n      mstore\n        /* \"#utility.yul\":7451:7455   */\n      0x11\n        /* \"#utility.yul\":7448:7449   */\n      0x04\n        /* \"#utility.yul\":7441:7456   */\n      mstore\n        /* \"#utility.yul\":7475:7479   */\n      0x24\n        /* \"#utility.yul\":7472:7473   */\n      0x00\n        /* \"#utility.yul\":7465:7480   */\n      revert\n        /* \"#utility.yul\":7615:7732   */\n    tag_123:\n        /* \"#utility.yul\":7724:7725   */\n      0x00\n        /* \"#utility.yul\":7721:7722   */\n      dup1\n        /* \"#utility.yul\":7714:7726   */\n      revert\n        /* \"#utility.yul\":7738:7963   */\n    tag_148:\n        /* \"#utility.yul\":7878:7912   */\n      0x4f776e61626c653a206e6577206f776e657220697320746865207a65726f2061\n        /* \"#utility.yul\":7874:7875   */\n      0x00\n        /* \"#utility.yul\":7866:7872   */\n      dup3\n        /* \"#utility.yul\":7862:7876   */\n      add\n        /* \"#utility.yul\":7855:7913   */\n      mstore\n        /* \"#utility.yul\":7947:7955   */\n      0x6464726573730000000000000000000000000000000000000000000000000000\n        /* \"#utility.yul\":7942:7944   */\n      0x20\n        /* \"#utility.yul\":7934:7940   */\n      dup3\n        /* \"#utility.yul\":7930:7945   */\n      add\n        /* \"#utility.yul\":7923:7956   */\n      mstore\n        /* \"#utility.yul\":7738:7963   */\n      pop\n      jump\t// out\n        /* \"#utility.yul\":7969:8137   */\n    tag_153:\n        /* \"#utility.yul\":8109:8129   */\n      0x596f75277265206e6f7420616c6c6f7765640000000000000000000000000000\n        /* \"#utility.yul\":8105:8106   */\n      0x00\n        /* \"#utility.yul\":8097:8103   */\n      dup3\n        /* \"#utility.yul\":8093:8107   */\n      add\n        /* \"#utility.yul\":8086:8130   */\n      mstore\n        /* \"#utility.yul\":7969:8137   */\n      pop\n      jump\t// out\n        /* \"#utility.yul\":8143:8323   */\n    tag_158:\n        /* \"#utility.yul\":8283:8315   */\n      0x496e73756666696369656e742066756e647320696e20636f6e74726163740000\n        /* \"#utility.yul\":8279:8280   */\n      0x00\n        /* \"#utility.yul\":8271:8277   */\n      dup3\n        /* \"#utility.yul\":8267:8281   */\n      add\n        /* \"#utility.yul\":8260:8316   */\n      mstore\n        /* \"#utility.yul\":8143:8323   */\n      pop\n      jump\t// out\n        /* \"#utility.yul\":8329:8511   */\n    tag_163:\n        /* \"#utility.yul\":8469:8503   */\n      0x4f776e61626c653a2063616c6c6572206973206e6f7420746865206f776e6572\n        /* \"#utility.yul\":8465:8466   */\n      0x00\n        /* \"#utility.yul\":8457:8463   */\n      dup3\n        /* \"#utility.yul\":8453:8467   */\n      add\n        /* \"#utility.yul\":8446:8504   */\n      mstore\n        /* \"#utility.yul\":8329:8511   */\n      pop\n      jump\t// out\n        /* \"#utility.yul\":8517:8639   */\n    tag_111:\n        /* \"#utility.yul\":8590:8614   */\n      tag_212\n        /* \"#utility.yul\":8608:8613   */\n      dup2\n        /* \"#utility.yul\":8590:8614   */\n      tag_138\n      jump\t// in\n    tag_212:\n        /* \"#utility.yul\":8583:8588   */\n      dup2\n        /* \"#utility.yul\":8580:8615   */\n      eq\n        /* \"#utility.yul\":8570:8633   */\n      tag_213\n      jumpi\n        /* \"#utility.yul\":8629:8630   */\n      0x00\n        /* \"#utility.yul\":8626:8627   */\n      dup1\n        /* \"#utility.yul\":8619:8631   */\n      revert\n        /* \"#utility.yul\":8570:8633   */\n    tag_213:\n        /* \"#utility.yul\":8517:8639   */\n      pop\n      jump\t// out\n        /* \"#utility.yul\":8645:8783   */\n    tag_115:\n        /* \"#utility.yul\":8726:8758   */\n      tag_215\n        /* \"#utility.yul\":8752:8757   */\n      dup2\n        /* \"#utility.yul\":8726:8758   */\n      tag_197\n      jump\t// in\n    tag_215:\n        /* \"#utility.yul\":8719:8724   */\n      dup2\n        /* \"#utility.yul\":8716:8759   */\n      eq\n        /* \"#utility.yul\":8706:8777   */\n      tag_216\n      jumpi\n        /* \"#utility.yul\":8773:8774   */\n      0x00\n        /* \"#utility.yul\":8770:8771   */\n      dup1\n        /* \"#utility.yul\":8763:8775   */\n      revert\n        /* \"#utility.yul\":8706:8777   */\n    tag_216:\n        /* \"#utility.yul\":8645:8783   */\n      pop\n      jump\t// out\n        /* \"#utility.yul\":8789:8911   */\n    tag_119:\n        /* \"#utility.yul\":8862:8886   */\n      tag_218\n        /* \"#utility.yul\":8880:8885   */\n      dup2\n        /* \"#utility.yul\":8862:8886   */\n      tag_167\n      jump\t// in\n    tag_218:\n        /* \"#utility.yul\":8855:8860   */\n      dup2\n        /* \"#utility.yul\":8852:8887   */\n      eq\n        /* \"#utility.yul\":8842:8905   */\n      tag_219\n      jumpi\n        /* \"#utility.yul\":8901:8902   */\n      0x00\n        /* \"#utility.yul\":8898:8899   */\n      dup1\n        /* \"#utility.yul\":8891:8903   */\n      revert\n        /* \"#utility.yul\":8842:8905   */\n    tag_219:\n        /* \"#utility.yul\":8789:8911   */\n      pop\n      jump\t// out\n\n    auxdata: 0xa2646970667358221220291b308d2f124b7cc95f94d0ab621ffd987b7143e77ab6d4976c641128ffc4a964736f6c63430008070033\n}\n",
				"bytecode": {
					"linkReferences": {},
					"object": "608060405234801561001057600080fd5b5061002d61002261003260201b60201c565b61003a60201b60201c565b6100fe565b600033905090565b60008060009054906101000a900473ffffffffffffffffffffffffffffffffffffffff169050816000806101000a81548173ffffffffffffffffffffffffffffffffffffffff021916908373ffffffffffffffffffffffffffffffffffffffff1602179055508173ffffffffffffffffffffffffffffffffffffffff168173ffffffffffffffffffffffffffffffffffffffff167f8be0079c531659141344cd1fd0a4f28419497f9722a3daafe3b4186f6b6457e060405160405180910390a35050565b610e118061010d6000396000f3fe6080604052600436106100745760003560e01c80638f32d59b1161004e5780638f32d59b1461014d578063f274c89714610178578063f2fde38b146101a1578063f3c40c4b146101ca576100c9565b80633e5beab9146100ce578063715018a61461010b5780638da5cb5b14610122576100c9565b366100c9573373ffffffffffffffffffffffffffffffffffffffff167f47f2f057e07ab96af9d94d9dbc644caf683a7e62af7e24e0a6e46b4667eb5832346040516100bf9190610bb5565b60405180910390a2005b600080fd5b3480156100da57600080fd5b506100f560048036038101906100f09190610999565b6101f3565b6040516101029190610bb5565b60405180910390f35b34801561011757600080fd5b5061012061020b565b005b34801561012e57600080fd5b50610137610293565b6040516101449190610aff565b60405180910390f35b34801561015957600080fd5b506101626102bc565b60405161016f9190610b1a565b60405180910390f35b34801561018457600080fd5b5061019f600480360381019061019a91906109c6565b610300565b005b3480156101ad57600080fd5b506101c860048036038101906101c39190610999565b610486565b005b3480156101d657600080fd5b506101f160048036038101906101ec9190610a06565b61057e565b005b60016020528060005260406000206000915090505481565b6102136106e8565b73ffffffffffffffffffffffffffffffffffffffff16610231610293565b73ffffffffffffffffffffffffffffffffffffffff1614610287576040517f08c379a000000000000000000000000000000000000000000000000000000000815260040161027e90610b95565b60405180910390fd5b61029160006106f0565b565b60008060009054906101000a900473ffffffffffffffffffffffffffffffffffffffff16905090565b60006102c6610293565b73ffffffffffffffffffffffffffffffffffffffff166102e46106e8565b73ffffffffffffffffffffffffffffffffffffffff1614905090565b806103096102bc565b80610353575080600160003373ffffffffffffffffffffffffffffffffffffffff1673ffffffffffffffffffffffffffffffffffffffff1681526020019081526020016000205410155b610392576040517f08c379a000000000000000000000000000000000000000000000000000000000815260040161038990610b55565b60405180910390fd5b478211156103d5576040517f08c379a00000000000000000000000000000000000000000000000000000000081526004016103cc90610b75565b60405180910390fd5b6103dd6102bc565b6103ec576103eb33836107b4565b5b8273ffffffffffffffffffffffffffffffffffffffff167f7f51d406915971d4ac1c91af96be5187ea6ab64753785aad519a533def80a41e836040516104329190610bb5565b60405180910390a28273ffffffffffffffffffffffffffffffffffffffff166108fc839081150290604051600060405180830381858888f19350505050158015610480573d6000803e3d6000fd5b50505050565b61048e6106e8565b73ffffffffffffffffffffffffffffffffffffffff166104ac610293565b73ffffffffffffffffffffffffffffffffffffffff1614610502576040517f08c379a00000000000000000000000000000000000000000000000000000000081526004016104f990610b95565b60405180910390fd5b600073ffffffffffffffffffffffffffffffffffffffff168173ffffffffffffffffffffffffffffffffffffffff161415610572576040517f08c379a000000000000000000000000000000000000000000000000000000000815260040161056990610b35565b60405180910390fd5b61057b816106f0565b50565b6105866106e8565b73ffffffffffffffffffffffffffffffffffffffff166105a4610293565b73ffffffffffffffffffffffffffffffffffffffff16146105fa576040517f08c379a00000000000000000000000000000000000000000000000000000000081526004016105f190610b95565b60405180910390fd5b3373ffffffffffffffffffffffffffffffffffffffff168273ffffffffffffffffffffffffffffffffffffffff167f3691d1a86d99355e52b689ca70a7bdf6d80763237a6aa06e5fa43964eac7244b600160008673ffffffffffffffffffffffffffffffffffffffff1673ffffffffffffffffffffffffffffffffffffffff1681526020019081526020016000205484604051610698929190610bd0565b60405180910390a380600160008473ffffffffffffffffffffffffffffffffffffffff1673ffffffffffffffffffffffffffffffffffffffff168152602001908152602001600020819055505050565b600033905090565b60008060009054906101000a900473ffffffffffffffffffffffffffffffffffffffff169050816000806101000a81548173ffffffffffffffffffffffffffffffffffffffff021916908373ffffffffffffffffffffffffffffffffffffffff1602179055508173ffffffffffffffffffffffffffffffffffffffff168173ffffffffffffffffffffffffffffffffffffffff167f8be0079c531659141344cd1fd0a4f28419497f9722a3daafe3b4186f6b6457e060405160405180910390a35050565b3373ffffffffffffffffffffffffffffffffffffffff168273ffffffffffffffffffffffffffffffffffffffff167f3691d1a86d99355e52b689ca70a7bdf6d80763237a6aa06e5fa43964eac7244b600160008673ffffffffffffffffffffffffffffffffffffffff1673ffffffffffffffffffffffffffffffffffffffff1681526020019081526020016000205461089585600160008973ffffffffffffffffffffffffffffffffffffffff1673ffffffffffffffffffffffffffffffffffffffff1681526020019081526020016000205461094490919063ffffffff16565b6040516108a3929190610bd0565b60405180910390a36108fd81600160008573ffffffffffffffffffffffffffffffffffffffff1673ffffffffffffffffffffffffffffffffffffffff1681526020019081526020016000205461094490919063ffffffff16565b600160008473ffffffffffffffffffffffffffffffffffffffff1673ffffffffffffffffffffffffffffffffffffffff168152602001908152602001600020819055505050565b600081836109529190610c0a565b905092915050565b60008135905061096981610d96565b92915050565b60008135905061097e81610dad565b92915050565b60008135905061099381610dc4565b92915050565b6000602082840312156109af576109ae610cc7565b5b60006109bd8482850161095a565b91505092915050565b600080604083850312156109dd576109dc610cc7565b5b60006109eb8582860161096f565b92505060206109fc85828601610984565b9150509250929050565b60008060408385031215610a1d57610a1c610cc7565b5b6000610a2b8582860161095a565b9250506020610a3c85828601610984565b9150509250929050565b610a4f81610c3e565b82525050565b610a5e81610c62565b82525050565b6000610a71602683610bf9565b9150610a7c82610ccc565b604082019050919050565b6000610a94601283610bf9565b9150610a9f82610d1b565b602082019050919050565b6000610ab7601e83610bf9565b9150610ac282610d44565b602082019050919050565b6000610ada602083610bf9565b9150610ae582610d6d565b602082019050919050565b610af981610c8e565b82525050565b6000602082019050610b146000830184610a46565b92915050565b6000602082019050610b2f6000830184610a55565b92915050565b60006020820190508181036000830152610b4e81610a64565b9050919050565b60006020820190508181036000830152610b6e81610a87565b9050919050565b60006020820190508181036000830152610b8e81610aaa565b9050919050565b60006020820190508181036000830152610bae81610acd565b9050919050565b6000602082019050610bca6000830184610af0565b92915050565b6000604082019050610be56000830185610af0565b610bf26020830184610af0565b9392505050565b600082825260208201905092915050565b6000610c1582610c8e565b9150610c2083610c8e565b925082821015610c3357610c32610c98565b5b828203905092915050565b6000610c4982610c6e565b9050919050565b6000610c5b82610c6e565b9050919050565b60008115159050919050565b600073ffffffffffffffffffffffffffffffffffffffff82169050919050565b6000819050919050565b7f4e487b7100000000000000000000000000000000000000000000000000000000600052601160045260246000fd5b600080fd5b7f4f776e61626c653a206e6577206f776e657220697320746865207a65726f206160008201527f6464726573730000000000000000000000000000000000000000000000000000602082015250565b7f596f75277265206e6f7420616c6c6f7765640000000000000000000000000000600082015250565b7f496e73756666696369656e742066756e647320696e20636f6e74726163740000600082015250565b7f4f776e61626c653a2063616c6c6572206973206e6f7420746865206f776e6572600082015250565b610d9f81610c3e565b8114610daa57600080fd5b50565b610db681610c50565b8114610dc157600080fd5b50565b610dcd81610c8e565b8114610dd857600080fd5b5056fea2646970667358221220291b308d2f124b7cc95f94d0ab621ffd987b7143e77ab6d4976c641128ffc4a964736f6c63430008070033",
					"opcodes": "PUSH1 0x80 PUSH1 0x40 MSTORE CALLVALUE DUP1 ISZERO PUSH2 0x10 JUMPI PUSH1 0x0 DUP1 REVERT JUMPDEST POP PUSH2 0x2D PUSH2 0x22 PUSH2 0x32 PUSH1 0x20 SHL PUSH1 0x20 SHR JUMP JUMPDEST PUSH2 0x3A PUSH1 0x20 SHL PUSH1 0x20 SHR JUMP JUMPDEST PUSH2 0xFE JUMP JUMPDEST PUSH1 0x0 CALLER SWAP1 POP SWAP1 JUMP JUMPDEST PUSH1 0x0 DUP1 PUSH1 0x0 SWAP1 SLOAD SWAP1 PUSH2 0x100 EXP SWAP1 DIV PUSH20 0xFFFFFFFFFFFFFFFFFFFFFFFFFFFFFFFFFFFFFFFF AND SWAP1 POP DUP2 PUSH1 0x0 DUP1 PUSH2 0x100 EXP DUP2 SLOAD DUP2 PUSH20 0xFFFFFFFFFFFFFFFFFFFFFFFFFFFFFFFFFFFFFFFF MUL NOT AND SWAP1 DUP4 PUSH20 0xFFFFFFFFFFFFFFFFFFFFFFFFFFFFFFFFFFFFFFFF AND MUL OR SWAP1 SSTORE POP DUP2 PUSH20 0xFFFFFFFFFFFFFFFFFFFFFFFFFFFFFFFFFFFFFFFF AND DUP2 PUSH20 0xFFFFFFFFFFFFFFFFFFFFFFFFFFFFFFFFFFFFFFFF AND PUSH32 0x8BE0079C531659141344CD1FD0A4F28419497F9722A3DAAFE3B4186F6B6457E0 PUSH1 0x40 MLOAD PUSH1 0x40 MLOAD DUP1 SWAP2 SUB SWAP1 LOG3 POP POP JUMP JUMPDEST PUSH2 0xE11 DUP1 PUSH2 0x10D PUSH1 0x0 CODECOPY PUSH1 0x0 RETURN INVALID PUSH1 0x80 PUSH1 0x40 MSTORE PUSH1 0x4 CALLDATASIZE LT PUSH2 0x74 JUMPI PUSH1 0x0 CALLDATALOAD PUSH1 0xE0 SHR DUP1 PUSH4 0x8F32D59B GT PUSH2 0x4E JUMPI DUP1 PUSH4 0x8F32D59B EQ PUSH2 0x14D JUMPI DUP1 PUSH4 0xF274C897 EQ PUSH2 0x178 JUMPI DUP1 PUSH4 0xF2FDE38B EQ PUSH2 0x1A1 JUMPI DUP1 PUSH4 0xF3C40C4B EQ PUSH2 0x1CA JUMPI PUSH2 0xC9 JUMP JUMPDEST DUP1 PUSH4 0x3E5BEAB9 EQ PUSH2 0xCE JUMPI DUP1 PUSH4 0x715018A6 EQ PUSH2 0x10B JUMPI DUP1 PUSH4 0x8DA5CB5B EQ PUSH2 0x122 JUMPI PUSH2 0xC9 JUMP JUMPDEST CALLDATASIZE PUSH2 0xC9 JUMPI CALLER PUSH20 0xFFFFFFFFFFFFFFFFFFFFFFFFFFFFFFFFFFFFFFFF AND PUSH32 0x47F2F057E07AB96AF9D94D9DBC644CAF683A7E62AF7E24E0A6E46B4667EB5832 CALLVALUE PUSH1 0x40 MLOAD PUSH2 0xBF SWAP2 SWAP1 PUSH2 0xBB5 JUMP JUMPDEST PUSH1 0x40 MLOAD DUP1 SWAP2 SUB SWAP1 LOG2 STOP JUMPDEST PUSH1 0x0 DUP1 REVERT JUMPDEST CALLVALUE DUP1 ISZERO PUSH2 0xDA JUMPI PUSH1 0x0 DUP1 REVERT JUMPDEST POP PUSH2 0xF5 PUSH1 0x4 DUP1 CALLDATASIZE SUB DUP2 ADD SWAP1 PUSH2 0xF0 SWAP2 SWAP1 PUSH2 0x999 JUMP JUMPDEST PUSH2 0x1F3 JUMP JUMPDEST PUSH1 0x40 MLOAD PUSH2 0x102 SWAP2 SWAP1 PUSH2 0xBB5 JUMP JUMPDEST PUSH1 0x40 MLOAD DUP1 SWAP2 SUB SWAP1 RETURN JUMPDEST CALLVALUE DUP1 ISZERO PUSH2 0x117 JUMPI PUSH1 0x0 DUP1 REVERT JUMPDEST POP PUSH2 0x120 PUSH2 0x20B JUMP JUMPDEST STOP JUMPDEST CALLVALUE DUP1 ISZERO PUSH2 0x12E JUMPI PUSH1 0x0 DUP1 REVERT JUMPDEST POP PUSH2 0x137 PUSH2 0x293 JUMP JUMPDEST PUSH1 0x40 MLOAD PUSH2 0x144 SWAP2 SWAP1 PUSH2 0xAFF JUMP JUMPDEST PUSH1 0x40 MLOAD DUP1 SWAP2 SUB SWAP1 RETURN JUMPDEST CALLVALUE DUP1 ISZERO PUSH2 0x159 JUMPI PUSH1 0x0 DUP1 REVERT JUMPDEST POP PUSH2 0x162 PUSH2 0x2BC JUMP JUMPDEST PUSH1 0x40 MLOAD PUSH2 0x16F SWAP2 SWAP1 PUSH2 0xB1A JUMP JUMPDEST PUSH1 0x40 MLOAD DUP1 SWAP2 SUB SWAP1 RETURN JUMPDEST CALLVALUE DUP1 ISZERO PUSH2 0x184 JUMPI PUSH1 0x0 DUP1 REVERT JUMPDEST POP PUSH2 0x19F PUSH1 0x4 DUP1 CALLDATASIZE SUB DUP2 ADD SWAP1 PUSH2 0x19A SWAP2 SWAP1 PUSH2 0x9C6 JUMP JUMPDEST PUSH2 0x300 JUMP JUMPDEST STOP JUMPDEST CALLVALUE DUP1 ISZERO PUSH2 0x1AD JUMPI PUSH1 0x0 DUP1 REVERT JUMPDEST POP PUSH2 0x1C8 PUSH1 0x4 DUP1 CALLDATASIZE SUB DUP2 ADD SWAP1 PUSH2 0x1C3 SWAP2 SWAP1 PUSH2 0x999 JUMP JUMPDEST PUSH2 0x486 JUMP JUMPDEST STOP JUMPDEST CALLVALUE DUP1 ISZERO PUSH2 0x1D6 JUMPI PUSH1 0x0 DUP1 REVERT JUMPDEST POP PUSH2 0x1F1 PUSH1 0x4 DUP1 CALLDATASIZE SUB DUP2 ADD SWAP1 PUSH2 0x1EC SWAP2 SWAP1 PUSH2 0xA06 JUMP JUMPDEST PUSH2 0x57E JUMP JUMPDEST STOP JUMPDEST PUSH1 0x1 PUSH1 0x20 MSTORE DUP1 PUSH1 0x0 MSTORE PUSH1 0x40 PUSH1 0x0 KECCAK256 PUSH1 0x0 SWAP2 POP SWAP1 POP SLOAD DUP2 JUMP JUMPDEST PUSH2 0x213 PUSH2 0x6E8 JUMP JUMPDEST PUSH20 0xFFFFFFFFFFFFFFFFFFFFFFFFFFFFFFFFFFFFFFFF AND PUSH2 0x231 PUSH2 0x293 JUMP JUMPDEST PUSH20 0xFFFFFFFFFFFFFFFFFFFFFFFFFFFFFFFFFFFFFFFF AND EQ PUSH2 0x287 JUMPI PUSH1 0x40 MLOAD PUSH32 0x8C379A000000000000000000000000000000000000000000000000000000000 DUP2 MSTORE PUSH1 0x4 ADD PUSH2 0x27E SWAP1 PUSH2 0xB95 JUMP JUMPDEST PUSH1 0x40 MLOAD DUP1 SWAP2 SUB SWAP1 REVERT JUMPDEST PUSH2 0x291 PUSH1 0x0 PUSH2 0x6F0 JUMP JUMPDEST JUMP JUMPDEST PUSH1 0x0 DUP1 PUSH1 0x0 SWAP1 SLOAD SWAP1 PUSH2 0x100 EXP SWAP1 DIV PUSH20 0xFFFFFFFFFFFFFFFFFFFFFFFFFFFFFFFFFFFFFFFF AND SWAP1 POP SWAP1 JUMP JUMPDEST PUSH1 0x0 PUSH2 0x2C6 PUSH2 0x293 JUMP JUMPDEST PUSH20 0xFFFFFFFFFFFFFFFFFFFFFFFFFFFFFFFFFFFFFFFF AND PUSH2 0x2E4 PUSH2 0x6E8 JUMP JUMPDEST PUSH20 0xFFFFFFFFFFFFFFFFFFFFFFFFFFFFFFFFFFFFFFFF AND EQ SWAP1 POP SWAP1 JUMP JUMPDEST DUP1 PUSH2 0x309 PUSH2 0x2BC JUMP JUMPDEST DUP1 PUSH2 0x353 JUMPI POP DUP1 PUSH1 0x1 PUSH1 0x0 CALLER PUSH20 0xFFFFFFFFFFFFFFFFFFFFFFFFFFFFFFFFFFFFFFFF AND PUSH20 0xFFFFFFFFFFFFFFFFFFFFFFFFFFFFFFFFFFFFFFFF AND DUP2 MSTORE PUSH1 0x20 ADD SWAP1 DUP2 MSTORE PUSH1 0x20 ADD PUSH1 0x0 KECCAK256 SLOAD LT ISZERO JUMPDEST PUSH2 0x392 JUMPI PUSH1 0x40 MLOAD PUSH32 0x8C379A000000000000000000000000000000000000000000000000000000000 DUP2 MSTORE PUSH1 0x4 ADD PUSH2 0x389 SWAP1 PUSH2 0xB55 JUMP JUMPDEST PUSH1 0x40 MLOAD DUP1 SWAP2 SUB SWAP1 REVERT JUMPDEST SELFBALANCE DUP3 GT ISZERO PUSH2 0x3D5 JUMPI PUSH1 0x40 MLOAD PUSH32 0x8C379A000000000000000000000000000000000000000000000000000000000 DUP2 MSTORE PUSH1 0x4 ADD PUSH2 0x3CC SWAP1 PUSH2 0xB75 JUMP JUMPDEST PUSH1 0x40 MLOAD DUP1 SWAP2 SUB SWAP1 REVERT JUMPDEST PUSH2 0x3DD PUSH2 0x2BC JUMP JUMPDEST PUSH2 0x3EC JUMPI PUSH2 0x3EB CALLER DUP4 PUSH2 0x7B4 JUMP JUMPDEST JUMPDEST DUP3 PUSH20 0xFFFFFFFFFFFFFFFFFFFFFFFFFFFFFFFFFFFFFFFF AND PUSH32 0x7F51D406915971D4AC1C91AF96BE5187EA6AB64753785AAD519A533DEF80A41E DUP4 PUSH1 0x40 MLOAD PUSH2 0x432 SWAP2 SWAP1 PUSH2 0xBB5 JUMP JUMPDEST PUSH1 0x40 MLOAD DUP1 SWAP2 SUB SWAP1 LOG2 DUP3 PUSH20 0xFFFFFFFFFFFFFFFFFFFFFFFFFFFFFFFFFFFFFFFF AND PUSH2 0x8FC DUP4 SWAP1 DUP2 ISZERO MUL SWAP1 PUSH1 0x40 MLOAD PUSH1 0x0 PUSH1 0x40 MLOAD DUP1 DUP4 SUB DUP2 DUP6 DUP9 DUP9 CALL SWAP4 POP POP POP POP ISZERO DUP1 ISZERO PUSH2 0x480 JUMPI RETURNDATASIZE PUSH1 0x0 DUP1 RETURNDATACOPY RETURNDATASIZE PUSH1 0x0 REVERT JUMPDEST POP POP POP POP JUMP JUMPDEST PUSH2 0x48E PUSH2 0x6E8 JUMP JUMPDEST PUSH20 0xFFFFFFFFFFFFFFFFFFFFFFFFFFFFFFFFFFFFFFFF AND PUSH2 0x4AC PUSH2 0x293 JUMP JUMPDEST PUSH20 0xFFFFFFFFFFFFFFFFFFFFFFFFFFFFFFFFFFFFFFFF AND EQ PUSH2 0x502 JUMPI PUSH1 0x40 MLOAD PUSH32 0x8C379A000000000000000000000000000000000000000000000000000000000 DUP2 MSTORE PUSH1 0x4 ADD PUSH2 0x4F9 SWAP1 PUSH2 0xB95 JUMP JUMPDEST PUSH1 0x40 MLOAD DUP1 SWAP2 SUB SWAP1 REVERT JUMPDEST PUSH1 0x0 PUSH20 0xFFFFFFFFFFFFFFFFFFFFFFFFFFFFFFFFFFFFFFFF AND DUP2 PUSH20 0xFFFFFFFFFFFFFFFFFFFFFFFFFFFFFFFFFFFFFFFF AND EQ ISZERO PUSH2 0x572 JUMPI PUSH1 0x40 MLOAD PUSH32 0x8C379A000000000000000000000000000000000000000000000000000000000 DUP2 MSTORE PUSH1 0x4 ADD PUSH2 0x569 SWAP1 PUSH2 0xB35 JUMP JUMPDEST PUSH1 0x40 MLOAD DUP1 SWAP2 SUB SWAP1 REVERT JUMPDEST PUSH2 0x57B DUP2 PUSH2 0x6F0 JUMP JUMPDEST POP JUMP JUMPDEST PUSH2 0x586 PUSH2 0x6E8 JUMP JUMPDEST PUSH20 0xFFFFFFFFFFFFFFFFFFFFFFFFFFFFFFFFFFFFFFFF AND PUSH2 0x5A4 PUSH2 0x293 JUMP JUMPDEST PUSH20 0xFFFFFFFFFFFFFFFFFFFFFFFFFFFFFFFFFFFFFFFF AND EQ PUSH2 0x5FA JUMPI PUSH1 0x40 MLOAD PUSH32 0x8C379A000000000000000000000000000000000000000000000000000000000 DUP2 MSTORE PUSH1 0x4 ADD PUSH2 0x5F1 SWAP1 PUSH2 0xB95 JUMP JUMPDEST PUSH1 0x40 MLOAD DUP1 SWAP2 SUB SWAP1 REVERT JUMPDEST CALLER PUSH20 0xFFFFFFFFFFFFFFFFFFFFFFFFFFFFFFFFFFFFFFFF AND DUP3 PUSH20 0xFFFFFFFFFFFFFFFFFFFFFFFFFFFFFFFFFFFFFFFF AND PUSH32 0x3691D1A86D99355E52B689CA70A7BDF6D80763237A6AA06E5FA43964EAC7244B PUSH1 0x1 PUSH1 0x0 DUP7 PUSH20 0xFFFFFFFFFFFFFFFFFFFFFFFFFFFFFFFFFFFFFFFF AND PUSH20 0xFFFFFFFFFFFFFFFFFFFFFFFFFFFFFFFFFFFFFFFF AND DUP2 MSTORE PUSH1 0x20 ADD SWAP1 DUP2 MSTORE PUSH1 0x20 ADD PUSH1 0x0 KECCAK256 SLOAD DUP5 PUSH1 0x40 MLOAD PUSH2 0x698 SWAP3 SWAP2 SWAP1 PUSH2 0xBD0 JUMP JUMPDEST PUSH1 0x40 MLOAD DUP1 SWAP2 SUB SWAP1 LOG3 DUP1 PUSH1 0x1 PUSH1 0x0 DUP5 PUSH20 0xFFFFFFFFFFFFFFFFFFFFFFFFFFFFFFFFFFFFFFFF AND PUSH20 0xFFFFFFFFFFFFFFFFFFFFFFFFFFFFFFFFFFFFFFFF AND DUP2 MSTORE PUSH1 0x20 ADD SWAP1 DUP2 MSTORE PUSH1 0x20 ADD PUSH1 0x0 KECCAK256 DUP2 SWAP1 SSTORE POP POP POP JUMP JUMPDEST PUSH1 0x0 CALLER SWAP1 POP SWAP1 JUMP JUMPDEST PUSH1 0x0 DUP1 PUSH1 0x0 SWAP1 SLOAD SWAP1 PUSH2 0x100 EXP SWAP1 DIV PUSH20 0xFFFFFFFFFFFFFFFFFFFFFFFFFFFFFFFFFFFFFFFF AND SWAP1 POP DUP2 PUSH1 0x0 DUP1 PUSH2 0x100 EXP DUP2 SLOAD DUP2 PUSH20 0xFFFFFFFFFFFFFFFFFFFFFFFFFFFFFFFFFFFFFFFF MUL NOT AND SWAP1 DUP4 PUSH20 0xFFFFFFFFFFFFFFFFFFFFFFFFFFFFFFFFFFFFFFFF AND MUL OR SWAP1 SSTORE POP DUP2 PUSH20 0xFFFFFFFFFFFFFFFFFFFFFFFFFFFFFFFFFFFFFFFF AND DUP2 PUSH20 0xFFFFFFFFFFFFFFFFFFFFFFFFFFFFFFFFFFFFFFFF AND PUSH32 0x8BE0079C531659141344CD1FD0A4F28419497F9722A3DAAFE3B4186F6B6457E0 PUSH1 0x40 MLOAD PUSH1 0x40 MLOAD DUP1 SWAP2 SUB SWAP1 LOG3 POP POP JUMP JUMPDEST CALLER PUSH20 0xFFFFFFFFFFFFFFFFFFFFFFFFFFFFFFFFFFFFFFFF AND DUP3 PUSH20 0xFFFFFFFFFFFFFFFFFFFFFFFFFFFFFFFFFFFFFFFF AND PUSH32 0x3691D1A86D99355E52B689CA70A7BDF6D80763237A6AA06E5FA43964EAC7244B PUSH1 0x1 PUSH1 0x0 DUP7 PUSH20 0xFFFFFFFFFFFFFFFFFFFFFFFFFFFFFFFFFFFFFFFF AND PUSH20 0xFFFFFFFFFFFFFFFFFFFFFFFFFFFFFFFFFFFFFFFF AND DUP2 MSTORE PUSH1 0x20 ADD SWAP1 DUP2 MSTORE PUSH1 0x20 ADD PUSH1 0x0 KECCAK256 SLOAD PUSH2 0x895 DUP6 PUSH1 0x1 PUSH1 0x0 DUP10 PUSH20 0xFFFFFFFFFFFFFFFFFFFFFFFFFFFFFFFFFFFFFFFF AND PUSH20 0xFFFFFFFFFFFFFFFFFFFFFFFFFFFFFFFFFFFFFFFF AND DUP2 MSTORE PUSH1 0x20 ADD SWAP1 DUP2 MSTORE PUSH1 0x20 ADD PUSH1 0x0 KECCAK256 SLOAD PUSH2 0x944 SWAP1 SWAP2 SWAP1 PUSH4 0xFFFFFFFF AND JUMP JUMPDEST PUSH1 0x40 MLOAD PUSH2 0x8A3 SWAP3 SWAP2 SWAP1 PUSH2 0xBD0 JUMP JUMPDEST PUSH1 0x40 MLOAD DUP1 SWAP2 SUB SWAP1 LOG3 PUSH2 0x8FD DUP2 PUSH1 0x1 PUSH1 0x0 DUP6 PUSH20 0xFFFFFFFFFFFFFFFFFFFFFFFFFFFFFFFFFFFFFFFF AND PUSH20 0xFFFFFFFFFFFFFFFFFFFFFFFFFFFFFFFFFFFFFFFF AND DUP2 MSTORE PUSH1 0x20 ADD SWAP1 DUP2 MSTORE PUSH1 0x20 ADD PUSH1 0x0 KECCAK256 SLOAD PUSH2 0x944 SWAP1 SWAP2 SWAP1 PUSH4 0xFFFFFFFF AND JUMP JUMPDEST PUSH1 0x1 PUSH1 0x0 DUP5 PUSH20 0xFFFFFFFFFFFFFFFFFFFFFFFFFFFFFFFFFFFFFFFF AND PUSH20 0xFFFFFFFFFFFFFFFFFFFFFFFFFFFFFFFFFFFFFFFF AND DUP2 MSTORE PUSH1 0x20 ADD SWAP1 DUP2 MSTORE PUSH1 0x20 ADD PUSH1 0x0 KECCAK256 DUP2 SWAP1 SSTORE POP POP POP JUMP JUMPDEST PUSH1 0x0 DUP2 DUP4 PUSH2 0x952 SWAP2 SWAP1 PUSH2 0xC0A JUMP JUMPDEST SWAP1 POP SWAP3 SWAP2 POP POP JUMP JUMPDEST PUSH1 0x0 DUP2 CALLDATALOAD SWAP1 POP PUSH2 0x969 DUP2 PUSH2 0xD96 JUMP JUMPDEST SWAP3 SWAP2 POP POP JUMP JUMPDEST PUSH1 0x0 DUP2 CALLDATALOAD SWAP1 POP PUSH2 0x97E DUP2 PUSH2 0xDAD JUMP JUMPDEST SWAP3 SWAP2 POP POP JUMP JUMPDEST PUSH1 0x0 DUP2 CALLDATALOAD SWAP1 POP PUSH2 0x993 DUP2 PUSH2 0xDC4 JUMP JUMPDEST SWAP3 SWAP2 POP POP JUMP JUMPDEST PUSH1 0x0 PUSH1 0x20 DUP3 DUP5 SUB SLT ISZERO PUSH2 0x9AF JUMPI PUSH2 0x9AE PUSH2 0xCC7 JUMP JUMPDEST JUMPDEST PUSH1 0x0 PUSH2 0x9BD DUP5 DUP3 DUP6 ADD PUSH2 0x95A JUMP JUMPDEST SWAP2 POP POP SWAP3 SWAP2 POP POP JUMP JUMPDEST PUSH1 0x0 DUP1 PUSH1 0x40 DUP4 DUP6 SUB SLT ISZERO PUSH2 0x9DD JUMPI PUSH2 0x9DC PUSH2 0xCC7 JUMP JUMPDEST JUMPDEST PUSH1 0x0 PUSH2 0x9EB DUP6 DUP3 DUP7 ADD PUSH2 0x96F JUMP JUMPDEST SWAP3 POP POP PUSH1 0x20 PUSH2 0x9FC DUP6 DUP3 DUP7 ADD PUSH2 0x984 JUMP JUMPDEST SWAP2 POP POP SWAP3 POP SWAP3 SWAP1 POP JUMP JUMPDEST PUSH1 0x0 DUP1 PUSH1 0x40 DUP4 DUP6 SUB SLT ISZERO PUSH2 0xA1D JUMPI PUSH2 0xA1C PUSH2 0xCC7 JUMP JUMPDEST JUMPDEST PUSH1 0x0 PUSH2 0xA2B DUP6 DUP3 DUP7 ADD PUSH2 0x95A JUMP JUMPDEST SWAP3 POP POP PUSH1 0x20 PUSH2 0xA3C DUP6 DUP3 DUP7 ADD PUSH2 0x984 JUMP JUMPDEST SWAP2 POP POP SWAP3 POP SWAP3 SWAP1 POP JUMP JUMPDEST PUSH2 0xA4F DUP2 PUSH2 0xC3E JUMP JUMPDEST DUP3 MSTORE POP POP JUMP JUMPDEST PUSH2 0xA5E DUP2 PUSH2 0xC62 JUMP JUMPDEST DUP3 MSTORE POP POP JUMP JUMPDEST PUSH1 0x0 PUSH2 0xA71 PUSH1 0x26 DUP4 PUSH2 0xBF9 JUMP JUMPDEST SWAP2 POP PUSH2 0xA7C DUP3 PUSH2 0xCCC JUMP JUMPDEST PUSH1 0x40 DUP3 ADD SWAP1 POP SWAP2 SWAP1 POP JUMP JUMPDEST PUSH1 0x0 PUSH2 0xA94 PUSH1 0x12 DUP4 PUSH2 0xBF9 JUMP JUMPDEST SWAP2 POP PUSH2 0xA9F DUP3 PUSH2 0xD1B JUMP JUMPDEST PUSH1 0x20 DUP3 ADD SWAP1 POP SWAP2 SWAP1 POP JUMP JUMPDEST PUSH1 0x0 PUSH2 0xAB7 PUSH1 0x1E DUP4 PUSH2 0xBF9 JUMP JUMPDEST SWAP2 POP PUSH2 0xAC2 DUP3 PUSH2 0xD44 JUMP JUMPDEST PUSH1 0x20 DUP3 ADD SWAP1 POP SWAP2 SWAP1 POP JUMP JUMPDEST PUSH1 0x0 PUSH2 0xADA PUSH1 0x20 DUP4 PUSH2 0xBF9 JUMP JUMPDEST SWAP2 POP PUSH2 0xAE5 DUP3 PUSH2 0xD6D JUMP JUMPDEST PUSH1 0x20 DUP3 ADD SWAP1 POP SWAP2 SWAP1 POP JUMP JUMPDEST PUSH2 0xAF9 DUP2 PUSH2 0xC8E JUMP JUMPDEST DUP3 MSTORE POP POP JUMP JUMPDEST PUSH1 0x0 PUSH1 0x20 DUP3 ADD SWAP1 POP PUSH2 0xB14 PUSH1 0x0 DUP4 ADD DUP5 PUSH2 0xA46 JUMP JUMPDEST SWAP3 SWAP2 POP POP JUMP JUMPDEST PUSH1 0x0 PUSH1 0x20 DUP3 ADD SWAP1 POP PUSH2 0xB2F PUSH1 0x0 DUP4 ADD DUP5 PUSH2 0xA55 JUMP JUMPDEST SWAP3 SWAP2 POP POP JUMP JUMPDEST PUSH1 0x0 PUSH1 0x20 DUP3 ADD SWAP1 POP DUP2 DUP2 SUB PUSH1 0x0 DUP4 ADD MSTORE PUSH2 0xB4E DUP2 PUSH2 0xA64 JUMP JUMPDEST SWAP1 POP SWAP2 SWAP1 POP JUMP JUMPDEST PUSH1 0x0 PUSH1 0x20 DUP3 ADD SWAP1 POP DUP2 DUP2 SUB PUSH1 0x0 DUP4 ADD MSTORE PUSH2 0xB6E DUP2 PUSH2 0xA87 JUMP JUMPDEST SWAP1 POP SWAP2 SWAP1 POP JUMP JUMPDEST PUSH1 0x0 PUSH1 0x20 DUP3 ADD SWAP1 POP DUP2 DUP2 SUB PUSH1 0x0 DUP4 ADD MSTORE PUSH2 0xB8E DUP2 PUSH2 0xAAA JUMP JUMPDEST SWAP1 POP SWAP2 SWAP1 POP JUMP JUMPDEST PUSH1 0x0 PUSH1 0x20 DUP3 ADD SWAP1 POP DUP2 DUP2 SUB PUSH1 0x0 DUP4 ADD MSTORE PUSH2 0xBAE DUP2 PUSH2 0xACD JUMP JUMPDEST SWAP1 POP SWAP2 SWAP1 POP JUMP JUMPDEST PUSH1 0x0 PUSH1 0x20 DUP3 ADD SWAP1 POP PUSH2 0xBCA PUSH1 0x0 DUP4 ADD DUP5 PUSH2 0xAF0 JUMP JUMPDEST SWAP3 SWAP2 POP POP JUMP JUMPDEST PUSH1 0x0 PUSH1 0x40 DUP3 ADD SWAP1 POP PUSH2 0xBE5 PUSH1 0x0 DUP4 ADD DUP6 PUSH2 0xAF0 JUMP JUMPDEST PUSH2 0xBF2 PUSH1 0x20 DUP4 ADD DUP5 PUSH2 0xAF0 JUMP JUMPDEST SWAP4 SWAP3 POP POP POP JUMP JUMPDEST PUSH1 0x0 DUP3 DUP3 MSTORE PUSH1 0x20 DUP3 ADD SWAP1 POP SWAP3 SWAP2 POP POP JUMP JUMPDEST PUSH1 0x0 PUSH2 0xC15 DUP3 PUSH2 0xC8E JUMP JUMPDEST SWAP2 POP PUSH2 0xC20 DUP4 PUSH2 0xC8E JUMP JUMPDEST SWAP3 POP DUP3 DUP3 LT ISZERO PUSH2 0xC33 JUMPI PUSH2 0xC32 PUSH2 0xC98 JUMP JUMPDEST JUMPDEST DUP3 DUP3 SUB SWAP1 POP SWAP3 SWAP2 POP POP JUMP JUMPDEST PUSH1 0x0 PUSH2 0xC49 DUP3 PUSH2 0xC6E JUMP JUMPDEST SWAP1 POP SWAP2 SWAP1 POP JUMP JUMPDEST PUSH1 0x0 PUSH2 0xC5B DUP3 PUSH2 0xC6E JUMP JUMPDEST SWAP1 POP SWAP2 SWAP1 POP JUMP JUMPDEST PUSH1 0x0 DUP2 ISZERO ISZERO SWAP1 POP SWAP2 SWAP1 POP JUMP JUMPDEST PUSH1 0x0 PUSH20 0xFFFFFFFFFFFFFFFFFFFFFFFFFFFFFFFFFFFFFFFF DUP3 AND SWAP1 POP SWAP2 SWAP1 POP JUMP JUMPDEST PUSH1 0x0 DUP2 SWAP1 POP SWAP2 SWAP1 POP JUMP JUMPDEST PUSH32 0x4E487B7100000000000000000000000000000000000000000000000000000000 PUSH1 0x0 MSTORE PUSH1 0x11 PUSH1 0x4 MSTORE PUSH1 0x24 PUSH1 0x0 REVERT JUMPDEST PUSH1 0x0 DUP1 REVERT JUMPDEST PUSH32 0x4F776E61626C653A206E6577206F776E657220697320746865207A65726F2061 PUSH1 0x0 DUP3 ADD MSTORE PUSH32 0x6464726573730000000000000000000000000000000000000000000000000000 PUSH1 0x20 DUP3 ADD MSTORE POP JUMP JUMPDEST PUSH32 0x596F75277265206E6F7420616C6C6F7765640000000000000000000000000000 PUSH1 0x0 DUP3 ADD MSTORE POP JUMP JUMPDEST PUSH32 0x496E73756666696369656E742066756E647320696E20636F6E74726163740000 PUSH1 0x0 DUP3 ADD MSTORE POP JUMP JUMPDEST PUSH32 0x4F776E61626C653A2063616C6C6572206973206E6F7420746865206F776E6572 PUSH1 0x0 DUP3 ADD MSTORE POP JUMP JUMPDEST PUSH2 0xD9F DUP2 PUSH2 0xC3E JUMP JUMPDEST DUP2 EQ PUSH2 0xDAA JUMPI PUSH1 0x0 DUP1 REVERT JUMPDEST POP JUMP JUMPDEST PUSH2 0xDB6 DUP2 PUSH2 0xC50 JUMP JUMPDEST DUP2 EQ PUSH2 0xDC1 JUMPI PUSH1 0x0 DUP1 REVERT JUMPDEST POP JUMP JUMPDEST PUSH2 0xDCD DUP2 PUSH2 0xC8E JUMP JUMPDEST DUP2 EQ PUSH2 0xDD8 JUMPI PUSH1 0x0 DUP1 REVERT JUMPDEST POP JUMP INVALID LOG2 PUSH5 0x6970667358 0x22 SLT KECCAK256 0x29 SHL ADDRESS DUP14 0x2F SLT 0x4B PUSH29 0xC95F94D0AB621FFD987B7143E77AB6D4976C641128FFC4A964736F6C63 NUMBER STOP ADDMOD SMOD STOP CALLER "
				},
				"gasEstimates": {
					"creation": {
						"codeDepositCost": "720200",
						"executionCost": "infinite",
						"totalCost": "infinite"
					},
					"external": {
						"addAllowance(address,uint256)": "infinite",
						"allowance(address)": "2815",
						"isOwner()": "2566",
						"owner()": "2567",
						"renounceOwnership()": "30397",
						"transferOwnership(address)": "30767",
						"withdrawMoney(address,uint256)": "infinite"
					}
				},
				"methodIdentifiers": {
					"addAllowance(address,uint256)": "f3c40c4b",
					"allowance(address)": "3e5beab9",
					"isOwner()": "8f32d59b",
					"owner()": "8da5cb5b",
					"renounceOwnership()": "715018a6",
					"transferOwnership(address)": "f2fde38b",
					"withdrawMoney(address,uint256)": "f274c897"
				}
			},
			"userdoc": {
				"kind": "user",
				"methods": {},
				"version": 1
			}
		}
	}
}